S01700004578656D706C6F2D426F742D4144432E73726563EC
S214400000403D002055154000511540005115400018
S21440001051154000511540005115400000000000A9
S21440002000000000000000000000000051154000E5
S2144000305115400000000000511540005115400089
S21440004051154000511540005115400051154000D3
S21440005051154000511540005115400051154000C3
S214400060511540005115400000000000B9104000F6
S214400070CD104000E11040005115400051154000A1
S21440008000000000000000005115400051154000DF
S2144000905115400051154000511540005D18400074
S2144000A05115400051154000511540005115400073
S2144000B051154000F51740005115400051154000BD
S2144000C051154000511540005115400010B5054CE3
S2144000D0237833B9044B13B10448AFF300800123AF
S2144000E0237010BD8C08002000000000B06F400058
S2144000F0084B10B51BB108490848AFF300800848C4
S214400100036803B910BD074B002BFBD0BDE8104079
S214400110184700BF0000000090080020B06F400065
S214400120B06F40000000000070B483B0C0F1110012
S214400130102828BF1020002808BF01200021104E9C
S2144001404FF40055182475630194019B5A1E019282
S214400150002BFAD135630194019B5A1E0192002B65
S214400160FAD101318142EED34FF400330193019B23
S2144001705A1E0192002BFAD103B070BC704700BFE4
S21440018000120E4082B04FF40052064B5A634FF4B2
S21440019000330193019B5A1E0192002BFAD102B004
S2144001A0704700BF00120E4009014250704700BF22
S2144001B000EB01114A60704700EB01118A607047FE
S2144001C000EB0111CA6070470A4B1B78012B06D121
S2144001D04FF0C24300221A7022221A707047022B38
S2144001E007D14FF0C2432C221A7000221A703C22CC
S2144001F01A707047680C0020C0F30742034B1A7011
S214400200C0F307221A70C0B218707047020000612F
S2144002102DE9F8430746884631F0070918D00446CA
S2144002200026124D57F82600A8476068A847A068E1
S214400230A847E068A8472069A8476069A847A0691A
S214400240A847E069A847083620344E45EAD300E080
S2144002500026B04508D907EB8604044D54F8040B35
S214400260A8470136B045F9D8BDE8F883F901400003
S2144002704FF0C24300221A7018700A0A02331A70EE
S214400280C9B21970704700BF10B44FF0C243002483
S2144002901C7018704AB14B1E501E51FA80F104482B
S2144002A013F8012F02708B42FAD110BC704700BF82
S2144002B00200006182B000230193019B984211D94D
S2144002C00021094A0191019B934205D8019B0133C5
S2144002D00193019B9342F9D9019B01330193019B02
S2144002E08342EFD302B070479F86010030B4154C6E
S2144002F024680568A54224BF04F1FF3505601568EB
S214400300AC429CBF04F1FF3414600F4C24680D6867
S214400310A54224BF04F1FF350D601D68AC429CBF6A
S21440032004F1FF341C6004681568AC4284BF056065
S21440033014600A681868824284BF08601A6030BC3D
S214400340704700BF000000200400002082B04FF03D
S214400350C24300221A70D3221A7002331A788DF8DC
S21440036000201A788DF801201A788DF802201B7824
S214400370DBB28DF80330D2B203EB02239BB249F2D4
S2144003804132934204D102220E4B1A70002017E0ED
S2144003904FF0C24300221A701A7002331A788DF852
S2144003A000201B78D2B203EB02239BB249F22532DF
S2144003B0934204D10122034B1A70002000E0012032
S2144003C002B07047680C002008B5094B1B78012B1B
S2144003D005D140F233110720064B984708BD022B43
S2144003E004D1002211462920034B984708BD00BF80
S2144003F0680C00207102400089024000044A131F26
S21440040002F56F7243F8040F9342FBD1704700BF6A
S214400410A80800202DE9F04182B00C4617461E463B
S214400420234B1B78012B14D185B229465020DFF888
S2144004308880C047781E291889B25120C047A4B288
S21440044021465220C047711E214489B25320C047DE
S2144004502AE0022B28D1030A8DF80430C3B28DF867
S2144004600530013A1044000A8DF8060017461F442E
S2144004708DF8077004220DEB02012A200D4DA84787
S214400480230A8DF80430E3B28DF80530721E14440A
S214400490240A8DF8064016461E448DF8076004224E
S2144004A00DEB02012B20A84702B0BDE8F08100BF4B
S2144004B0680C0020890240007102400038B5064BA7
S2144004C01B78012B07D10C4601462020034DA84738
S2144004D021462120A84738BD680C00207102400004
S2144004E02DE9F04383B00646AC4B9847002840F0D1
S2144004F04F81F022AA4B1A604FF4A072A94B1A60A3
S214400500A94B1B78012B40F0B18033210720A74C24
S214400510A04700211020A04701210020A0474FF40B
S21440052080710120A0474FF4E0610220A0470021DF
S2144005300420A04740F207210820A04700210920B8
S214400540A04700210A20A04700210C20A0470021F8
S2144005500D20A04700210F20A04700211020A047D3
S21440056000211120A04700211220A047002113207F
S214400570A047C8208E4DA84741F290211020A047A2
S21440058040F227211120A0473220A8471B211220E5
S214400590A0473220A8474FF488511320A04719217E
S2144005A02920A0470D212B20A0473220A847002114
S2144005B03020A0474FF401713120A0474FF400711E
S2144005C03220A04707213520A04741F2044136207B
S2144005D0A04740F205713720A04740F20531382049
S2144005E0A04740F207713920A04740F201713C20F5
S2144005F0A0470E213D20A0474DF210010320A04702
S2144006004FF427416020A04701216120A0470021E8
S2144006106A20A04700218020A04700218120A047D3
S21440062000218220A04700218320A047002184206B
S214400630A04700218520A04710219020A0474FF4D6
S214400640C0619220A0474FF488719520A0477368F8
S214400650326800210846574CA047B068564B98472A
S21440066000210846554B9847002094E0022B40F066
S214400670918039238DF800302C238DF801300024EA
S2144006808DF8024034238DF8033002278DF804702D
S21440069005226946CB204A4DA8478DF80040AA233C
S2144006A08DF80130B0238DF8023003226946CF2002
S2144006B0A84730238DF8003001226946F720A84726
S2144006C025238DF8003001226946C020A8474FF008
S2144006D011098DF8009001226946C120A8475C2385
S2144006E08DF800304C238DF801303A466946C520D7
S2144006F0A84794238DF8003001226946C720A847B2
S21440070085238DF800304FF001088DF8018078235E
S2144007108DF8023003226946E820A8478DF800404D
S2144007208DF801403A466946EA20A84748238DF8A6
S2144007300030424669463620A84706238DF80030EA
S214400740424669463A20A8478DF8007082238DF8C5
S214400750013027238DF802308DF803400422694685
S214400760B620A8477368326821462046114FB847DE
S214400770B068114B9847224669464846A8470A2023
S2144007800B4B9847224669462920A847204602E058
S214400790012000E0012003B0BDE8F0834D03400097
S2144007A00000002004000020680C00207102400079
S2144007B0B502400015044000FD034000BD04400063
S2144007C08902400010B5164B1B68834221D9154B51
S2144007D01B688B421FD9144B1B78012B0BD189B257
S2144007E080B2124B9847124B9847124B1868124BE0
S2144007F09847002010BD022B0FD100231A460F4CFD
S214400800A0470B4B98470B4B18680B4B984700205C
S21440081010BD012010BD012010BD002010BD00BF3E
S2144008200000002004000020680C0020BD044000AA
S214400830C9014000A8080020F90140001504400006
S2144008402DE9F04184B003900291019204AA42F847
S214400850103D134601AA02A903A8214CA0470398BD
S2144008600299009B0133019A01325B1A121A1D4C01
S214400870A047BDF80810BDF80C001B4B98471B4B13
S2144008809847039A019B9A1A009B03F10108029B22
S214400890C3EB080802FB0888154CA4FB0834E4099F
S2144008A007D0144FF026144D31463846A847013C31
S2144008B0FAD10F49A1FB0831C909C1EB0111A8EBD8
S2144008C001110C480C4B98470C4B1B680C4A12689D
S2144008D000210846034CA04704B0BDE8F08100BFA5
S2144008E0ED02400015044000BD044000C901400030
S2144008F089888888A808002011024000040000204B
S214400900000000202DE9F04F85B003900292137846
S214400910002B45D08A460190DFF890800A2B04D100
S2144009200AF1100A039B019334E003EB83031E4E47
S21440093006EB8303A3F27F26019F3B460A330093D0
S2144009400AF107090724B3465D4616F8013C2341E1
S21440095013F0010F03D0C4EB09013846C047013CF1
S214400960B4F1FF3FF0D107240AF10F0B2B78234157
S21440097013F0010F03D0C4EB0B013846C047013CCF
S214400980012CF3D102360137009BBB42DAD1019BE2
S2144009900C330193029A12F8013F0292002BBDD10C
S2144009A005B0BDE8F08F00BF70664000C507400048
S2144009B030B4012404600025456040F20224C0F8AB
S2144009C02041C0F80451C0F8145144685200B1FBAD
S2144009D0F2F14A1E120292B223431A43426028465C
S2144009E030BC70474368D201D2B2194311434160CC
S2144009F0704700BF10B44468090601F07061224396
S214400A000A431B0703F040531343436010BC704730
S214400A1002230360704700BF012303FA01F101611E
S214400A20704700BF006A704741627047006B70476E
S214400A3010B489014318022444504FF0FF319962A4
S214400A40196A5A6010BC70478901052343507047A5
S214400A5000EB8111CA61704700EB81114A62704712
S214400A6000EB8111086A7047F0B486B00224019406
S214400A700824029420240394802404940A9CE40BC3
S214400A800594B0EB510F1CD84C0CA0421FD201AEBF
S214400A90012556F8044FB1FBF4F4270C844212D3D8
S214400AA0874215D90135052DF3D1002013E006A95C
S214400AB001EB850151F8141C116033B11D60012013
S214400AC009E0002007E0002005E0012003E00025C3
S214400AD0002AECD1F1E706B0F0BC704710B50E48DE
S214400AE00E4B98473E2100200D4B98470D4CA04793
S214400AF00028FCD00C4B98470C4A0D4B9A620D4C84
S214400B00A0470028FCD010200B4B98470B4B98472B
S214400B100148024B984710BD000E270719174000A2
S214400B205D114000B1114000C1114000013F13204B
S214400B3000040E40D1114000F5104000051640005C
S214400B4038B54FF40042464B5A600B20454CA04700
S214400B500C20A0470D20A0474FF060511320424C78
S214400B60A0474FF060511420A04740492320A0479B
S214400B703F494C20A0474FF000624FF4C0613D48CB
S214400B803D4B98474FF080510020A0474FF0805192
S214400B900820A0474FF080515220A0474FF00061F8
S214400BA00C20A0474FF000610D20A0474FF0006199
S214400BB00E20A0474FF000610B20A0474FF0006189
S214400BC01520A0474FF000611620A0474FF0405137
S214400BD01720A0471720294B9847294D29464020E3
S214400BE0A04729464120A04729464220A0472946FB
S214400BF04320A04729464420A04729464520A047F1
S214400C0029464620A04729464720A04729464B204C
S214400C10A04729464820A04729464F20A0472946B6
S214400C205320A0474FF040514D20A04705F10055B6
S214400C3029461020A04729461120A0474FF00061C2
S214400C400C20A0474FF000610D20A0474FF00061F8
S214400C500E20A0474FF000610B20A04738BD00BFD4
S214400C6050140E40ED114000E50D4000790000287C
S214400C7059000028000E0E40090F4000C90D4000E4
S214400C8001000008C0F8841052004FF40043B3FB44
S214400C90F2F2013AC2F30D02C0F88C20704700BF52
S214400CA04264B1F1C05F2FD007D8B1F1006F14D0C5
S214400CB0B1F1805F1ED039B97047B1F1205F36D0B0
S214400CC004D8B1F1005F29D042607047B1F1405F6F
S214400CD02DD0B1F1605F2AD0F6E710B4046F016FF3
S214400CE0D343214019400167446F416F21400B4078
S214400CF043671AE0036F13430367416F436F0B402C
S214400D0023EA02034367DFE7016F036F0B4023EAE2
S214400D1002030367436F13434367D5E7036F1343E9
S214400D200367436F13434367CEE7426010BC704788
S214400D30416412F0010F14BF4166016612F00A0FBB
S214400D4014BF0162416212F0020F02D0C0F8801058
S214400D5004E012F0080F18BFC0F88410416101602B
S214400D60704700BF10B44164019C0CB1416600E07E
S214400D7001660BB1016500E041650AB1016300E020
S214400D8041630161016010BC704700BF12F0100F54
S214400D9010D0C0F8B01012F0200F14BFC0F8D41016
S214400DA0C0F8D01012F0400F14BFC0F8C010C0F802
S214400DB0C4107047C0F8B410704700BF0164704755
S214400DC0C06C7047806C7047430903F5001303F20C
S214400DD007735B0200F01F00012202FA00F058631E
S214400DE0704700BF70B582B00D46430903F5001347
S214400DF003F207735C0201F0F043B3F1005F47D0A3
S214400E0009D8B3F1805F21D0B3F1C05F2FD0B3F1E2
S214400E10006F6FD109E0B3F1405F55D0B3F1605F2A
S214400E2052D0B3F1205F44D064E000F01F000126AA
S214400E30864032464FF000612046304B984715F0CA
S214400E40010F14BF66662666012054E000F01F00BE
S214400E500126864032464FF080512046274B984721
S214400E6015F0010F14BF66662666012043E000F0C9
S214400E701F000126864032464FF0C05120461F4B89
S214400E80984715F0010F14BF66662666012032E0CB
S214400E9000F01F000126864032464FF000512046A3
S214400EA0164B984715F0010F14BF6666266601205C
S214400EB021E000F01F0101262A4606FA01F12046ED
S214400EC00F4B9847304616E005F0605200F01F0181
S214400ED0012605EA06030093C5F38003B2F1605F7E
S214400EE014BF0022012206FA01F12046054CA04715
S214400EF0304600E0002002B070BD00BFA10C4000AC
S214400F00310D4000650D400070B582B005460E4676
S214400F10144602F0F043B3F1005F38D009D8B3F17D
S214400F20805F1CD0B3F1C05F25D0B3F1006F50D1C5
S214400F3009E0B3F1405F3AD0B3F1605F37D0B3F128
S214400F40205F30D045E00A464FF00061224B98477C
S214400F5014F0010F14BF6E662E6601203AE00A4672
S214400F604FF080511C4B984714F0010F14BF6E662B
S214400F702E6601202EE00A464FF0C051164B984789
S214400F8014F0010F14BF6E662E66012022E00A465A
S214400F904FF00051104B984714F0010F14BF6E6687
S214400FA02E66012016E00D4B9847012012E004F013
S214400FB0605204F001030093C4F38003B2F1605F13
S214400FC014BF0022012231462846054CA047012086
S214400FD000E0002002B070BDA10C4000310D400082
S214400FE0650D40002DE9F84381468846124B9847E8
S214400FF005464846114B9847054013D0104C04F11F
S21440100060062368434508D16168294205D0E368F5
S21440101040469847636825EA0305B44202D0103438
S214401020002DEED1074B1B6823B1074B1B680BB155
S21440103048469847BDE8F883C10D4000C50D4000BE
S214401040740C0020240D0020700C0020F8B5174CBE
S2144010502668062E28D84FF0000C6446144FA64645
S21440106025017D598D4204D107EB04156D689542E4
S21440107004D00134E4B2A446A642F0D20C4D4FEA66
S2144010800E1E05EB0E0445F80E106260A36006992E
S214401090E1600136664504BF04490E6011461A46B3
S2144010A0044B98470020F8BD0120F8BD6C0C00208A
S2144010B0740C00208D0D400008B50B210148024BF2
S2144010C0984708BD000E0E40E50F400008B50C21BD
S2144010D00148024B984708BD00100E40E50F4000FF
S2144010E008B50D210148024B984708BD00120E4036
S2144010F0E50F4000184A136B23F070031843106343
S214401100936E13F0080F03D009E0013B03D11EE0B5
S2144011104FF4006310498A6E12F0080FF5D00E4A5D
S214401120136B23F0030343F002031363906E10F037
S214401130080004D000207047013B03D109E04FF47B
S214401140006305498A6E12F0080FF5D070470120FB
S21440115070470120704700BF00040E4038B1114967
S2144011600B6A114A1A40114B13430B6270470D48E5
S214401170026A090289B222F45C1323F0030343F4A3
S2144011805C1343F001030B4303620246936E13F075
S214401190010FFBD0034A136A43F09B7343F480333A
S2144011A01362704700040E40FCFFC8FE0200370181
S2144011B0024B986E00F48030704700BF00040E402B
S2144011C04FF00052014B9A62704700BF00040E4039
S2144011D0024B986E00F00200704700BF00040E40BD
S2144011E00022014BDA62704700040E4022281ED8C7
S2144011F01F280CD8114B9A6901238340934318D07B
S214401200012303FA00F00D4B186100207047203888
S2144012100A4BD3F808210123834093430BD0012384
S21440122003FA00F0054BC3F8000100207047012088
S2144012307047002070470020704700BF00040E40F3
S214401240014B1860704700BF0C000020114A136F16
S21440125023F4C001104B1B680B431367136A43F417
S2144012605C1343F004031362936E13F0080FFBD035
S2144012704FF4FA7300BF013BFCD1064A136A13F0E1
S214401280080FFBD0034A136F23F4C00343F48003D4
S2144012901367704700040E400C0000202DE9F84FFD
S2144012A0431E042B00F23481DFE813F005000500EE
S2144012B0130013002301974A136923F004031361B4
S2144012C00122954B1A70BFF35F8F62B630BFBDE800
S2144012D0F88F044603280CBF00204FF400108F4BB5
S2144012E0984772B6BFF35F8F00228B4B1A7001226D
S2144012F08B4B1A708B4BD3F820801D6B8A4AD2F8E2
S21440130000A002F50072D2F800909F6AD3F82CB085
S21440131048F45C1242F008021A6205F00306012EF9
S2144013200AD925F0030141F0010119631A46936E6C
S21440133013F0080FFBD000E0294611F0700F08D0DC
S21440134021F07001774B19631A46936E13F0080F1D
S214401350FBD0764B9847764B9847724A936E13F479
S214401360003FFBD06F4A136A23F09B7323F480330D
S21440137043F45C131362936E13F4803FFBD02AF45D
S2144013807063694A136029F4706302F50072136053
S214401390042C09D1A2F50062136A23F45C1323F0EF
S2144013A0010343F45C1313625B4C01232370BFF3C9
S2144013B05F8F62B65F4B984772B6BFF35F8F00236E
S2144013C0237018F0020F0FD0564A136A5A49194034
S2144013D05A4B0B431362136A23F45C1323F07803CF
S2144013E043F45C1313622FE018F0010F2CD04D4BE2
S2144013F01B6A13F0010F0ED14A4A136A23F45C139A
S21440140023F0030343F45C1343F001031362936E2B
S21440141013F0010FFBD0434B1B6A13F0807F0AD1B9
S214401420404A136A43F09B7343F480331362936ECF
S21440143013F4803FFBD03B4A136A23F45C1323F03B
S214401440780343F45C1313623D4B3B402BB147F0AB
S2144014500057344B9F62022200E00022384B0BEAD2
S214401460030323B12F4BC3F82CB042F00402022EE4
S21440147002D0032E06D00AE02A498B6E13F0020FE4
S214401480FBD004E027498B6E13F0040FFBD02548B1
S214401490036B23F0700105F070030B4303630146B2
S2144014A08B6E13F0080FFBD01F4BC3F800A003F55C
S2144014B00073C3F80090A3F500631D6319468B6E56
S2144014C013F0080FFBD017498B6E1342FCD0002256
S2144014D0134B1A701B4B1B681BB198470022194BC5
S2144014E01A6001220C4B1A70BFF35F8F62B6BDE8DC
S2144014F0F88F084A136943F004031361124A134BEA
S2144015001A600122044B1A70BFF35F8F62B630BF79
S214401510BDE8F88F00ED00E00800002041124000D2
S214401520E80C002000040E40000A0E40C1114000A6
S214401530E11140004D124000FCFFC8FE020037019A
S2144015400000FF07E40C0020040000A510140E4025
S214401550FEE700BF08B5204B204A9A4212D9204BDE
S2144015601D4A9A421ED21146013B9B1A23F00303A2
S21440157004331A4A134452F8040B41F8040B9A42B7
S214401580F9D10FE0144B154A9A420BD2144B124A2B
S2144015909A1A144811182AB151F8042943F8042D10
S2144015A08142F9D100BF104B104A9A420BD2131D0C
S2144015B00F4AD21A22F003021A44043B002143F891
S2144015C0041B9A42FBD10B4B0B4A9A600B4B984735
S2144015D00B4B9847FEE700BF00000020B06F40006E
S2144015E08C080020AC6F40003C0D00208C0800208A
S2144015F03F0D002000ED00E000004000091B4000C9
S214401600291A40003D4B1B6B03F00303032B5DD8A8
S214401610DFE803F0020E2B2B394B5B6913F0800F8B
S21440162014BF4FF400424FF4FA42364B1A604DE076
S214401630324B1B6A13F0807F03D0334A314B1A601B
S21440164044E0324A2F4B1A602C4B1B6A03F070035F
S214401650102B02D0202B04D038E02D4A294B1A609C
S21440166034E0294A274B1A6030E0244B1B6A13F0BB
S214401670807F03D0244A234B1A6012E0234A214B32
S2144016801A601E4B1B6A03F07003102B02D0202BEF
S21440169004D006E01E4A1B4B1A6002E01A4A194B59
S2144016A01A60164B1B6B03F00303022B134A07BF4B
S2144016B0936A926AD36AD26A1248C3F30A410368AD
S2144016C001FB0333D2B2B3FBF2F303600B4B1B6B4D
S2144016D003F07003702B07D10A4A13680D49A1FB2B
S2144016E003135B0813607047044B1B6B0549C3F339
S2144016F002120B68D3400B60704700BF00040E40D8
S21440170010140E4010000020001BB70000093D00DA
S21440171000127A00ABAAAAAA1A4B984207D84FF0F2
S2144017208063194A136002F5007213607047174BC6
S214401730984206D8164B144A136002F5007213609E
S2144017407047144B984206D8134B0F4A136002F565
S214401750007213607047114B984206D8104B0A4AE5
S214401760136002F50072136070470E4B984294BFA8
S2144017704FF004230C4B044A136002F500721360CA
S214401780704700BFFF2C3101000A0E40FF5962022D
S21440179000010004FF86930300020004FFB3C40464
S2144017A000030004FFE0F50500050004094B1B6834
S2144017B013B9094A074B1A60064B1B681A180749A3
S2144017C0914204DB1046034A1060184670474FF0BB
S2144017D0FF307047EC0C0020403D0020FC7F02208C
S2144017E008B50248024B984708BD00BF008003403A
S2144017F0110A400030B585B01048114B984710F09C
S214401800807F18D00D480F4B984782B20E4901A8EA
S2144018100E4B98476FF07F400D4CA047C823F022F0
S214401820AF2187200B4DA8470020A04701AAB4212E
S2144018308C20094B984705B030BD00BF0080034060
S2144018402D0A4000250A4000F06D4000F51B400080
S214401850FD034000410840000509400008B500214E
S2144018600348044B98470448044B984708BD00BFBC
S21440187000000140610A400000800340110A400019
S2144018802DE9F0410A201E4B98471E4C4FF002327D
S214401890012120461C4B98471C4A012120461C4BE0
S2144018A098471C4A012120461B4B9847032201219A
S2144018B020461A4B98471A4DF0262E604FF4A077D4
S2144018C06F600024AC606FF07F48C5F80C80154B05
S2144018D098472846144B98470820144B984740464C
S2144018E0134B98473B46324621462046114DA84763
S2144018F0114B984721462046104B9847BDE8F0814B
S214401900ED11400000000E40A901400004040A0A00
S214401910B10140000A001600B9014000C101400074
S214401920280D002085014000E104400029014000C8
S214401930FD03400041084000C9034000BD0440008C
S21440194030B583B00C20114B9847114C79220821B2
S2144019502046104B98470A22082120460E4B9847AF
S2144019600E4B0093792308220C2120460C4DA847A5
S214401970082120460B4B98470B4B502283F80C23EC
S2144019804FF480521A6003B030BD00BFED114000E6
S21440199000100E40310D4000850C4000E11740001D
S2144019A04D104000BD0D400000E100E038B51D2060
S2144019B0134B9847134C4FF48023134A1349204641
S2144019C0134DA84702234FF440120F212046114DD5
S2144019D0A8470022114620460F4B9847052120462F
S2144019E00E4B98470E4B502283F81D234FF0005263
S2144019F01A604FF0807120460A4B984738BD00BFAA
S214401A00ED1140000080034000A86100000E27074B
S214401A10B1094000F5094000E5094000190A4000B8
S214401A2000E100E0290A400000B585B0234B984706
S214401A30234B9847234B9847234B9847234B98472D
S214401A401720234B9847234C009403AB02AA214609
S214401A500A20214DA847214D039A42F48042002196
S214401A6028461F4B9847029AB4FBF2F41D4AA2FB45
S214401A700432D208002128461B4B98471B4B4FF494
S214401A800002C3F88021402183F817131A60102201
S214401A9000212846164B984700212846154B984764
S214401AA00020154B9847154A14210A20144B984796
S214401AB00225144C2846A047FCE700BFDD0A40003C
S214401AC0410B400081184000AD19400041194000CC
S214401AD0ED114000000E2707690A40000000014053
S214401AE0310A4000CDCCCCCC510A400000E100E0A9
S214401AF0590A4000490A4000FD034000F46D40008A
S214401B00050940009D12400070B50F4E0F4D761BE4
S214401B10B61018BF002405D0013455F8043B98474A
S214401B20A642F9D10A4E0B4D761B05F02BFAB6109D
S214401B3018BF002406D0013455F8043B9847A64207
S214401B40F9D170BD70BD00BF906F4000906F4000EF
S214401B50986F4000906F400070B4840746D0541E83
S214401B60002A41D0CDB2034602E0621EE4B31446DA
S214401B7003F8015B9A07F8D1032C2ED9CDB245EA7B
S214401B8005250F2C45EA054519D903F110022646CE
S214401B90103E0F2E42F8105C42F80C5C42F8085C8F
S214401BA042F8045C02F11002F2D8A4F1100222F0CE
S214401BB00F0204F00F041032032C13440DD91E46B6
S214401BC02246043A032A46F8045BFAD8221F22F03B
S214401BD003020432134404F003042CB1C9B21C447B
S214401BE003F8011BA342FBD170BC70471446034662
S214401BF0C2E700BF0EB4F0B59CB021AB0F4953F816
S214401C00042B019305466FF00044086802954FF494
S214401C1002774FF6FF7602A90695ADF81470049445
S214401C200794ADF8166000F079F8029B00221A700F
S214401C301CB0BDE8F04003B0704700BF4004002031
S214401C4090F800F06DE9024520F007016FF0000CB7
S214401C5010F0070491F820F040F049804FF000045F
S214401C606FF00700D1E9002391F840F000F108003A
S214401C7082FA4CF2A4FA8CF283FA4CF3A2FA8CF372
S214401C804BBBD1E9022382FA4CF200F10800A4FAD9
S214401C908CF283FA4CF3A2FA8CF3E3B9D1E904232D
S214401CA082FA4CF200F10800A4FA8CF283FA4CF364
S214401CB0A2FA8CF37BB9D1E9062301F1200182FA1E
S214401CC04CF200F10800A4FA8CF283FA4CF3A2FA24
S214401CD08CF3002BC6D0002A04BF04301A4612BA32
S214401CE0B2FA82F2FDE8024500EBD2007047D1E935
S214401CF0002304F00305C4F100004FEAC50514F0C4
S214401D00040F91F840F00CFA05F562EA05021CBF94
S214401D1063EA050362464FF00004A9E72DE9F04F59
S214401D20C1B00C46099115460E930A9002F05EFC2F
S214401D30036817931846FFF783FFA38916901E067D
S214401D4003D52369002B01F0198100231A4612930C
S214401D502593249319930B93DFF864A4149230AB25
S214401D60239399461592A84698F800304446EBB11E
S214401D70252B02D11AE0252B03D014F8013F002B67
S214401D80F9D1C8EB04058DB1249B259AC9F800808B
S214401D9001332A44072BC9F804502592249300F3B4
S214401DA0A68009F108090B9B2B440B932378002B44
S214401DB000F0A68000231A468DF86F3019460C9323
S214401DC007934FF0FF3B637804F101085D4608F146
S214401DD00108A3F12000582800F22584DFE810F01F
S214401DE088032304230490032304230423042304A6
S214401DF0230423049703A50323045D00E200230481
S214401E00FE00050105010501050105010501050165
S214401E100501050123042304230423042304230487
S214401E20230423042304230415018102230481028E
S214401E302304230423042304C60223042304CD02DC
S214401E4023042304230423042304F7022304230443
S214401E502503230423042304230423042304230404
S214401E60230423042304660379038102810281024A
S214401E708103790323042304D1032304DB03A30053
S214401E806400EE032304F5032304AA032304230477
S214401E90BC030C980E9340420C90079B43F00403FF
S214401EA0079398F8003092E70E98AB4600210468F6
S214401EB08DF86F10071D0798302378228B458DF8D4
S214401EC070304FF000058DF8712040F00203C0F2EC
S214401ED0C78320F0800343F00203079354EA0503C8
S214401EE00E9700F093830F461192B348CEE223AA92
S214401EF009990A9803F09EFC48B90DF1C00952E7CB
S214401F00259B23B10A98099923AA03F093FC099BC1
S214401F109B8913F0400F0B9B18BF4FF0FF331846BA
S214401F2041B0BDE8F08F1193AB46002A41F02382C2
S214401F30079A12F0200300F02E820E9F073727F0F4
S214401F400703002703F10801BB450E91D3E900457E
S214401F508DF86F70C0F2528722F08003079354EAE0
S214401F60050300F0758330AEE20842EA4572E908A0
S214401F7004F007030D461446303354EA050206F8CB
S214401F80013DF1D1079AD10740F18480302B00F013
S214401F9081803022731E06F8012C30AAD21A0D9288
S214401FA01E467AE098F800302A2B08F1010401F02A
S214401FB0B181A3F13000092898BF002501F2648161
S214401FC014F8013B05EB850500EB4505A3F1300011
S214401FD00928F5D945EAE575A046FAE6079B43F099
S214401FE08003079398F80030F1E6A3F13000002311
S214401FF01C4618F8013B04EB840400EB4404A3F1B0
S21440200030000928F5D90C94E3E61193AB46002A34
S21440201041F0C981079B43F010030793079B98063E
S21440202040F130850E9F073727F00707D7E9002392
S21440203007F108010E9114461D46002A73F100036D
S214402040C0F25B85BBF1000F9DF86F70C0F238851B
S214402050079B23F08003079354EA050300F0DB81D7
S214402060002D08BF0A2CC0F0DB8130AE2046294642
S2144020700A22002304F070F9303206F8012D20467B
S214402080294600230A2204F067F904460D4654EA1E
S2144020900503EBD130AB9B1B0D930D9B5B45B8BF47
S2144020A05B4608930023139317B1089B01330893AC
S2144020B0079B13F002030F9302D0089B023308934A
S2144020C0079B13F08403109340F0D7820C9B089A2A
S2144020D09D1A002D40F3D182102D2599249A374F12
S2144020E027DD189648461024B946099E2F460A9D75
S2144020F004E0103F102F00F1080016DD01322F4B90
S21440210024921031072A259180E81800F1DD23AA91
S2144021103146284603F08EFB00287FF4F8AE103F89
S214402120102F2599249A30A8E8DC189E3D464F4645
S214402130814601326C18072A25942492C9F800700B
S214402140C9F8045000F328849DF86F7009F1080917
S21440215077B1249B013301340DF16F010122072B27
S2144021602594249389E8060000F3A08309F1080922
S2144021700F9B6BB1249B013302341CA90222072B10
S2144021802594249389E8060000F39C8309F1080906
S214402190109B802B00F0D5820D9BC3EB0B07002FC6
S2144021A039DD074A249B0F92102F28DD22464FF038
S2144021B0100B0A9D099C0AE03C6E40005C6E400095
S2144021C0086E4000103F102F09F1080916DD013354
S2144021D01032072B2592249389E8000CF2DD23AABF
S2144021E02146284603F026FB00287FF490AE103F99
S2144021F0102F259A249B0DF1C009E8DC14460133C4
S2144022000F9A24933C44072B259489E8840000F3D6
S214402210418309F10809079BDA0500F13082249BC7
S2144022200D99C9F8006001330C44072B2594C9F872
S2144022300410249300F3188309F10809079B5907F3
S2144022403FD50C9B089A9D1A002D3ADD102D249BF5
S214402250BC4F23DD22461026DDF828B0099C04E05A
S214402260103D102D09F1080917DD0133B5492493B7
S2144022701032072B259289E84200F1DD23AA214639
S214402280584603F0D7FA00287FF441AE103D102D93
S214402290259A249B0DF1C009E7DC144601332C44F3
S2144022A0072B25942493C9F80070C9F8045008DD1C
S2144022B023AA09990A9803F0BDFA00287FF427AEAE
S2144022C0259C0B9B0C9A08998A42ACBF9B185B18BE
S2144022D00B93002C40F0D482002324930DF1C009C8
S2144022E042E51193AB46002A41F059800E9F0737CE
S2144022F027F0070303F108020E921A6814925B68EF
S2144023001593159B149D23F00044284621464FF014
S214402310FF328D4B03F0E2FF002840F0C184284690
S21440232021464FF0FF32884B03F0BAFF002840F0BA
S214402330B784149815990022002303F0A7FF0028BD
S21440234040F04B879DF86F70804E814B079921F087
S21440235080010791119903224FF0000B08924729FC
S214402360D8BF1E460D92CDF84CB09DE6079B43F075
S2144023700803079398F8003029E51193AB46002AE6
S21440238041F00980079B43F010030793079A12F029
S21440239020037FF4D2AD079911F0100200F00785B4
S2144023A00E988DF86F30BBF1000F046800F10407FB
S2144023B04FF00005C0F221850A4622F080020792BF
S2144023C054EA05020E9700F043811F46CBE5119371
S2144023D0AB46002A40F0D787079B43F0100307938D
S2144023E0079A12F0200300F032830E9F073727F03B
S2144023F00703002703F10801BB450E91D3E90045CA
S2144024008DF86F70C0F25C8322F08003079354EA25
S21440241005037FF425AEBBF1000F00F0FE800024DC
S21440242040AE303406F8414D34E61193AB46002AB0
S21440243040F0A587079B47489D0640F197800E9F32
S214402440073727F00703D3E9004503F108020E9249
S214402450079A12F0010700F0418254EA050300F0A3
S214402460F5849DF844208DF871200027079A8DF852
S2144024706F703023BB458DF8703042F00203C0F2D7
S214402480A98622F0800343F00203079330AE230967
S21440249004F00F0143EA05732A091C461546435CBF
S2144024A006F8013D54EA0503F1D1F3E50E99119380
S2144024B00A688DF8982000230A461F468DF86F302C
S2144024C0043201230893BB4613970E920D9326AE13
S2144024D0EEE51193AB46002A3FF4A0AD8DF86F10A1
S2144024E09CE5079B43F04003079398F800306EE462
S2144024F098F8003000297FF46AAC0122202166E477
S214402500079B43F00103079398F800305FE40E9C66
S21440251023680C9318460028234603F10403FFF66D
S214402520B8AC0E9398F8003051E498F80030012289
S2144025302B214CE41193AB46002A3FF451AF8DF863
S2144025406F104DE75C6E4000FFFFEF7F1C6E400053
S214402550186E4000286E40001193AB46002A40F0AB
S2144025600387079B99489D063FF569AF079BDC06A6
S21440257040F15E840E9A1346043314680E93002589
S21440258066E798F800306C2B00F0E184079840F03E
S214402590100007901BE4002A40F0DB86079B9B0652
S2144025A040F12F840E9A0B991368CD1708460432D3
S2144025B029460E92C3E90001FFF7D6BB079B43F0BE
S2144025C02003079398F8003001E40E9A119316689A
S2144025D000248DF86F40171D002E00F0BD85002D9D
S2144025E0C0F20F852A462146304602F0C1FA00283E
S2144025F000F00486831B0D93A34623EAE3730E97ED
S2144026000893CDF84CB09DF86F704DE56F48119229
S214402610BBF1000F40F073815F464FF0000BCDF8E2
S21440262034B030AE39E51193002A40F0B086119AA6
S214402630002A3FF465AC002301211F4608918DF81F
S21440264098208DF86F309B4613930D9126AE2FE55C
S214402650BBF1000F00F0DD8500270024002582E452
S2144026605A480793119254EA05030E974FF0000715
S2144026707FF40CAF0024002508E7259C68E5119BF5
S214402680652B40F3A980149815990022002303F087
S214402690F3FD002800F03581249B4D4AC9F8002000
S2144026A0013301340122072B25942493C9F80420D2
S2144026B000F3E68309F108091D9B129A934203DB57
S2144026C0079BDB077FF5BAAD249B1699179AC9F886
S2144026D0002001330C44072B2594C9F8041024939A
S2144026E000F33F8409F10809129B5D1E002D7FF719
S2144026F0A5AD384A249B0F92102D40F3E681102654
S2144027000A9FDDF824B005E009F10809103D102DB8
S21440271040F3DB8101331034072B25942493C9F80A
S21440272000A0C9F80460EFDD23AA5946384603F0F6
S21440273081F800287FF4EBAB259C249B0DF1C00963
S214402740E4E70C9B089A9F1A002F7FF725AD214A95
S214402750249B0F92102F2BDD4A462146B946102562
S21440276037460A9C099E06E0A9F11009B9F1100FF8
S21440277002F1080218DD01331031072B259124930E
S214402780C2F800A05560EFDD23AA3146204603F08C
S21440279051F800287FF4BBABA9F11009B9F1100F2E
S2144027A02599249B30AAE6DC3E460C464F46914689
S2144027B001330F9A24933C44072B259489E88400E0
S2144027C000F3458209F10809E6E400BF3C6E40008C
S2144027D0586E4000086E4000129B249D012B40F32B
S2144027E00882013501340123072D25942495C9F824
S2144027F00060C9F8043000F30D8209F10809169A02
S214402800179BC9F8003001351444072D25942495AC
S214402810C9F8042000F30E8209F108090023149831
S2144028201599002203F028FD129B002840F0C38033
S214402830013B013501361C44072D24952594C9F8E3
S2144028400060C9F8043000F3F58009F10809199AC8
S214402850C9F80420013514441FAB072D2594249550
S214402860C9F800307FF7E8AC23AA09990A9802F025
S214402870E1FF00287FF44BAB259C0DF1C009DDE459
S21440288023AA09990A9802F0D5FF00283FF424AD00
S214402890FFF73DBB23AA09990A9802F0CBFF002810
S2144028A07FF435AB259C0DF1C009B4E423AA099901
S2144028B00A9802F0BFFF00287FF429AB259C0DF153
S2144028C0C00955E423AA09990A9802F0B3FF0028E4
S2144028D07FF41DAB259C0DF1C00959E4BBF1000FF8
S2144028E08DF86F70C0F2D88222F08003079354EAC6
S2144028F005037FF4CBADBBF1000F3FF48DAE002750
S214402900B8E61D9D002D40F3CA82139B129A93424F
S214402910A8BF1346002B1D460DDD249BC9F800605A
S21440292001332C44072B2594C9F80450249300F314
S2144029309C8309F10809139B002DA8BF5B1B002B45
S2144029401D4640F3F680BA4A249B0F92102D40F362
S2144029508A8222461027DDF828B0099C05E009F156
S2144029600809103D102D40F37D8201331032072BAD
S21440297025922493C9F800A0C9F80470EFDD23AA75
S2144029802146584602F056FF00287FF4C0AA259AF2
S214402990249B0DF1C009E4E723AA09990A9802F09E
S2144029A049FF00287FF4B3AA9DF86F70259C0DF16F
S2144029B0C009FFF7CDBB5E1E002E7FF748AF9C4B8D
S2144029C00F93102E2CDDCDF834801027B046DDF85E
S2144029D028B0099E06E0A8F11008B8F1100F09F1DA
S2144029E008091ADD01351034072D25942495C9F8B9
S2144029F000A0C9F80470EEDD23AA3146584602F01E
S214402A0019FF00287FF483AAA8F11008B8F1100F28
S214402A10259C249D0DF1C009E4DC4646DDF8348053
S214402A200F9B01353444072D2594249589E84800AA
S214402A307FF70BAF23AA09990A9802F0FBFE0028FD
S214402A407FF465AA259C249D0DF1C009FFE60799F1
S214402A5011F0100200F008810E988DF86F30BBF12F
S214402A60000F046800F104074FF0000526DB0A4615
S214402A7022F08002079254EA05020E971F467FF422
S214402A80EFAAC8E4079BD9062AD4079B5A0627D53F
S214402A900E99B1F900400431E51722462B460E91B7
S214402AA0FFF7CBBA0E998DF86F30BBF1000F0C686C
S214402AB001F104074FF0000580F247820E971F464B
S214402AC054EA05037FF4CCAAAAE401330F9A249370
S214402AD02C44072B259489E824007FF7ADABC3E64A
S214402AE00E9A146813460433E51722460E93002ABE
S214402AF02B4673F10003BFF6A5AA64424FF02D079C
S214402B0065EB4505BBF1000F8DF86F70FFF6A8AA80
S214402B10079B23F080030793FFF7A2BA23AA0999DD
S214402B200A9802F087FE00287FF4F1A9259C0DF153
S214402B30C009139A1D9B32441746129A934247DBAC
S214402B40079AD50744D412990E44F51BCB1A9D42DA
S214402B50A8BF1D46002D2E460DDD249AC9F80070EC
S214402B6001322C44072A2594C9F80450249200F3D5
S214402B700B8309F10809002EACBF9D1B1D46002D96
S214402B807FF75CAB2A4A249B0F92102D9DDD1026C2
S214402B900A9FDDF824B004E009F10809103D102D25
S214402BA093DD01331034072B25942493C9F800A0F5
S214402BB0C9F80460F0DD23AA5946384602F03AFECA
S214402BC000287FF4A4A9259C249B0DF1C009E5E7C5
S214402BD0249A16981799C9F8001001320444072A17
S214402BE02594C9F80400249200F3A98209F1080943
S214402BF0A9E7079BD8073FF5F4AD0135013401231B
S214402C00072D25942495C9F80060C9F804307FF74D
S214402C101CAE0FE723AA09990A9802F00BFE00287B
S214402C207FF475A9259C249D0DF1C009E7E500BFFA
S214402C30086E400023AA09990A9802F0FBFD002876
S214402C407FF465A9259C249D0DF1C009E6E523AADD
S214402C5009990A9802F0EEFD00287FF458A9259CB1
S214402C600DF1C009FFF798BA079911F040033FF4F9
S214402C7019AF0E988DF86F20BBF1000F048800F155
S214402C8004074FF00005C0F2B98121F08003079396
S214402C9054EA05030E9717467FF4E2A9FFF7BBBB3D
S214402CA0149C22462046159C2346214603F016FBDC
S214402CB0002840F01783119BBBF1FF3F23F0200311
S214402CC00D9300F07082472B00F09281079B43F4EF
S214402CD080731093159B1F1E149B0893BBBF3B46E7
S214402CE003F1004700232D230F93119B662B00F022
S214402CF05D82462B00F051810D9B089A452B21A8FA
S214402D001EA90CBF0BF101055D46049003911DA85A
S214402D1002213B460290019500910A9800F0F0FB94
S214402D20119B672B064640F09082079BDA0740F1DE
S214402D30AF827419089839460022002303F09CFAA3
S214402D40002840F09081219B9C4206D930215A1C95
S214402D5021921970219B9C42F9D89B1B12930D9B84
S214402D60472B00F07981119B652B40F37D82119BA8
S214402D70662B1D9B139300F05B82139A12998A422E
S214402D80C0F23082079BD90700F1848222EAE273C0
S214402D900D92672211920F9A002A40F053810893B1
S214402DA0109B079393469DF86F70FFF77DB9079980
S214402DB011F0400315D00E988DF86F20BBF1000F30
S214402DC0048800F104074FF0000516DB21F080036D
S214402DD0079354EA05030E973FF43AAC1746FFF7BD
S214402DE0C2B80E998DF86F30BBF1000F0C6801F138
S214402DF004074FF0000580F2A5800E970027FFF7E6
S214402E00B2B8079BDF060BD4079B5E0608D50E9A22
S214402E10136804320E92BDF82C201A80FEF7A4BF29
S214402E200E9A136804320E920B9A1A60FEF79CBFF5
S214402E300E9A079B13F0400F134603F104030CBF92
S214402E40146814880E930025FFF702BB0027BB4585
S214402E508DF86F70FFF60EAC079B23F08003079348
S214402E60FFF7D6BB144601330F9A24932C44072B06
S214402E70259489E824003FF751AE09F1080958E641
S214402E8023AA09990A9802F0D5FC00287FF43FA8A7
S214402E90259C0DF1C0090FE40E9FFFF7E4BB249B71
S214402EA0B54AC9F80020013301340122072B259486
S214402EB02493C9F8042000F38E8009F108092DB93F
S214402EC0129B1BB9079BDF077FF5B8A9249B169971
S214402ED0179AC9F8002001330C44072B2594C9F8EB
S214402EE00410249300F3C28109F108096D42002DB5
S214402EF040F39B80A14A0F92102D40F3C380224698
S214402F001027DDF828B0099C05E009F10809103DB6
S214402F10102D40F3B68001331032072B25922493B0
S214402F20C9F800A0C9F80470EFDD23AA2146584628
S214402F3002F080FC00287EF4EAAF259A249B0DF12F
S214402F40C009E4E7079AFFF738BA079A90E5079B67
S214402F5043F02003079308F1010898F80030FEF785
S214402F6036BF23AA09990A9802F064FC00287EF42A
S214402F70CEAF259C0DF1C009FFF7B6BB40210A989D
S214402F8001F038FB099A10601061002800F0E581D6
S214402F90099A40235361FEF7D8BE21A81EA9049083
S214402FA003911DA803210290089ACDF804B03B4631
S214402FB000910A9800F0A4FA5D460646119B462BFF
S214402FC006EB05047FF4B6AE3378302B00F07C81F8
S214402FD01D9D2C44AEE623AA09990A9802F02AFCC5
S214402FE000287EF494AF1D9D259C0DF1C00966E730
S214402FF0BBF1000F08BF4FF0010B67E60E97174670
S2144030005EE53046FEF71CFEA34603460D90FFF7EE
S214403010F4BA23AA09990A9802F00CFC00287EF418
S21440302076AF259C249B0DF1C0091299C9F8006023
S21440303001330C44072B25942493C9F804107FF7DA
S214403040FBA811E42D270893109B07938DF86F700B
S2144030504FF0000BFFF729B81D9BDD1C1EDB9B4580
S2144030601CDB139389E6234677E623AA09990A9838
S21440307002F0E0FB00287EF44AAF259C0DF1C00923
S21440308059E4144601330F9A24932C44072B259475
S21440309089E82400BDDC09F10809C6E7119A023A1E
S2144030A01192013B002B9DF844201D93B8BF5B4214
S2144030B08DF87C20B4BF2D222B22092B8DF87D2045
S2144030C040F3F1800DF18B0004462D4A82FB03212C
S2144030D0DA17C2EBA10202EB8201A3EB410303F134
S2144030E03001092A134604F8011DEEDC2146303330
S2144030F0DAB201F8012D884240F23A810DF17E01A4
S214403100234601E013F8012B01F8012B9842F9D130
S214403110431C1B1B0DF17E0213441FAA9B1A129AD6
S2144031201993012A13440D9340F3EA800D9B169A97
S214403130134400220D93139223EAE3732BE623AA4B
S21440314009990A9802F076FB00287EF4E0AE1D9BB3
S214403150259C0DF1C009F6E4062D2B4628BF062314
S2144031600D9323EAE373B3460E97139637460893B8
S214403170044EFEF799BF00BF586E4000086E4000F0
S21440318067666666506E400023AA09990A9802F060
S21440319051FB00287EF4BBAE1D9B129A259CD31A89
S2144031A00DF1C009E7E44FF0060B8FE521A81EA9F4
S2144031B0049003911DA803210290089ACDF804B00C
S2144031C03B4600910A9800F09BF95D46064600EBA8
S2144031D00B04F9E60793FFF759B92D278DF86F7062
S2144031E0FFF7B2B8169A129B1344139A0D93002A0F
S2144031F07EDD672223EAE3731192CCE525EAE57388
S2144032000E9708930D95834613909DF86F70FEF7C2
S2144032104BBF079BDB075F4605D540AE302306F81D
S214403220413DFEF737BFCDF834B030AEFEF735BF80
S214403230002B7DDDBBF1000F3DD1079AD4073AD471
S2144032401A460D9223EAE373A5E5119B472B7FF4BC
S21440325070AD079BDB073FF5B1AE219B9B1B1293DE
S2144032600D9B472B3FF4F8AE1D9B1AE723AA0999FE
S2144032700A9802F0DFFA00287EF449AE1D9D259C90
S214403280249B0DF1C00931E6A0460025FEF7A1BDFE
S214403290219B62E5169A139B134467220D93119265
S2144032A023EAE37377E5303330228DF87F308DF8AC
S2144032B07E2020AB31E7139B169A9D1805EB0B0337
S2144032C00D9323EAE37366E5089839460022002307
S2144032D002F0D2FF00287FF47BAEC5F101051D95B4
S2144032E02C4427E5324E334B9DF86F70FFF72EB8CF
S2144032F0139B0D9AC3F101031A4413460D9278E7C7
S214403300079B13F001037FF411AF13930D9B23EA41
S214403310E37340E50E9898F8013005680430002DB8
S2144033200E90A046BEF653AD4FF0FF35FEF74FBDAC
S214403330BBF1000F02D1079BD80707D5169B5D1C33
S21440334005EB0B030D9323EAE37324E501230D936A
S21440335021E58DF86F10FFF721B90A9A0C23136008
S2144033604FF0FF30FEF7DCBD8DF86F10FFF7F9B871
S2144033700DF17E03D1E68DF86F10FEF7D9BD8DF8BE
S2144033806F10FFF757B88DF86F10FFF725B88DF818
S2144033906F10FFF74CB98DF86F10FEF7F3BF8DF83E
S2144033A06F10FEF7A3BF8DF86F10FEF733BE00BF59
S2144033B0246E4000206E4000024B13B1024800F0DD
S2144033C005B87047000000005943400000230146FE
S2144033D01A46184602F0AEBA02690B69934200F3E9
S2144033E08D802DE9F04F03F1FF3801F1140700F10D
S2144033F0140B57F828205BF828304FEA880483B02F
S2144034000132B3FBF2F90BEB0403009407EB040A1A
S2144034100193B9F1000F39D00025BC46DE462B4655
S2144034205CF8046BDEF80020B4B209FB0455360C99
S2144034302C0C09FB0644ADB25B1BA6B213FA82F312
S214403440C6EB124606EB23469BB243EA0643E245EA
S2144034504EF8043B4FEA14454FEA2643E0D2009B21
S2144034605BF8033093B9019C231F9B450CD254F85C
S214403470043C4BB9A4F1080302E01A68043B1AB9AD
S2144034809B4508F1FF38F8D3C0F81080044601F099
S214403490C9FE00282EDB09F101095D46002357F8D6
S2144034A0041B28688AB29A1A090C12FA80F2C1EBF9
S2144034B0104303EB224391B241EA0341BA4545F833
S2144034C0041B4FEA2343EAD25BF828200BEB880321
S2144034D082B91A1F93450BD253F8042C42B9083BC5
S2144034E002E01A68043B1AB99B4508F1FF38F8D346
S2144034F0C4F81080484603B0BDE8F08F00207047FF
S2144035002DE9F04F016C97B08146239C92469B462E
S21440351049B1426C4A60012393408B6001F0A0FCA5
S2144035200023C9F84030BBF1000FD84633DB0023F8
S2144035302360A54B1A4608EA0303934214D050462C
S21440354059460022002302F097FE054648B3229AC9
S21440355001231360249B002B00F0C5809B48186015
S214403560013817B0BDE8F08F229A42F20F7313600D
S214403570BAF1000F00F0A2809548249B002BF0D0B3
S214403580C378002B00F0B18000F10803249A136042
S21440359017B0BDE8F08F01232BF000482360C346E8
S2144035A0C7E714AA15AB0192009352465B464846BD
S2144035B001F0E2FE5FEA1854089040F08880149DBF
S2144035C0159C2C4404F23243202B40F39182C3F1E5
S2144035D0400304F2124008FA03F82AFA00F040EAE0
S2144035E0080002F06BFB0123013CA1F1F871109337
S2144035F00022784B02F024FA6DA3D3E9002302F0B0
S214403600D3FB6DA3D3E9002302F01CFA06462046FE
S2144036100F4602F063FB6AA3D3E9002302F0C4FB23
S21440362002460B463046394602F00CFA06460F462E
S21440363002F06AFE0022049000233046394602F02B
S21440364025FE002840F03082049E162E00F2298285
S214403650614B03EBC603D3E9000152465B4602F0DA
S21440366033FE002800F04982731E049300230C9317
S2144036702C1B631E029300F1328200230593049BA9
S214403680002BC0F22382029A0B9311461944002362
S21440369002910A93209B092B29D8052B40F3588684
S2144036A0043B20930025209B023B032B00F23586EB
S2144036B0DFE813F02C03280237035904444B474AEB
S2144036C0C8F31300002814BF1846104655E7CBF33E
S2144036D0130343F07F5110955046A4F2FF3441F453
S2144036E04011149D84E73E483BE7C31C4EE700214B
S2144036F0C9F844104846209101F08CFB4FF0FF3348
S2144037000693209A0D93012307902192C9F8400012
S2144037100993159B002BC0F2D180049A0E2A00F321
S214403720CD802D4B03EBC203D3E90034CDE9023400
S214403730219B002BC0F2008356465F4650465946B2
S214403740DDE902AB52465B4602F058FC02F0DCFD77
S214403750044602F0C3FA52465B4602F025FB0B468F
S21440376002463946304602F06BF9079D04F13003B5
S2144037702B70069B012B06460F4605F1010562D0CD
S2144037800022184B02F010FB0022002306460F468C
S21440379002F072FD00287ED1CDF81490DDF818A016
S2144037A0DDF81CB0DDE9028929E000BFAFF30080F8
S2144037B061436F63A787D23FB3C8608B288AC63FF2
S2144037C0FB799F501344D33F0000F07F596E400072
S2144037D0786E40000000F83F886E40006C6E4000F7
S2144037E0586E40000000244002F0DEFA002200231B
S2144037F006460F4602F040FD002840F0B78342469A
S2144038004B463046394602F0F9FB02F07DFD044651
S21440381002F064FA42464B4602F0C6FA02460B46AF
S2144038203046394602F00CF904F1300E05F801EB4B
S214403830CBEB050ED64506460F464FF00002B04B82
S214403840D2D1DDF8149032463B463046394602F037
S214403850F9F806460F4602460B46DDE9020102F03D
S21440386015FD40B932463B46DDE9020102F004FD53
S21440387088B1E3070FD515F8014C079A6B1E04E094
S2144038809A4200F02C8413F8014D392C03F10105BF
S214403890F6D001341C700899484601F0E1FA00223F
S2144038A0049B2A70229A01331360249B002B00F05D
S2144038B0A78307981D6017B0BDE8F08F099A002AC5
S2144038C000F01281209A012A40F35882069B0A9AF9
S2144038D05F1EBA42C0F29783D71B069B002BC0F2EE
S2144038E08A84059D069B059A1A440592029A0121F0
S2144038F01A444846029201F04BFB064665B10299CF
S21440390000290B4608DDA942059AA8BF2B46D21AC5
S214403910ED1ACB1A059202930A9B002B40F3FC82C9
S214403920099A002A00F00182002F00F0FE813146FD
S2144039303A46484601F0CEFBDDF820800146424636
S2144039400646484601F02EFB41460446484601F0EE
S21440395087FA0A9BDB1B0A9340F0E6810121484622
S21440396001F016FB0B9B8046002B00F019820146A7
S2144039701A46484601F0AEFB209B012B804640F39A
S214403980F8820027D8F8103008EB8303186901F056
S214403990B1FAC0F12000029A104410F01F0000F067
S2144039A0F681C0F12003042B40F3CA84059BC0F186
S2144039B01C00034405931346034405440293059BA9
S2144039C0002B05DD21461A46484601F0D3FB044647
S2144039D0029B002B05DD41461A46484601F0CAFBCD
S2144039E080460C9B002B40F07C82069B002B40F3CD
S2144039F09582099B002B40F0F581DDF81CB0069FB0
S214403A005D4602E001F036FA044641462046FFF79E
S214403A10E3FC00F1300A05F801ABCBEB0503BB42F3
S214403A204FF00A024FF0000321464846EADB079B68
S214403A30069A012AACBF9B1801331D464FF0000B77
S214403A4021460122484601F095FB4146089001F088
S214403A50E9FB002840F30D8315F8012C07996B1EEF
S214403A6004E08B4200F0788213F8012D392A03F1E6
S214403A700105F6D001321A704146484601F0F0F989
S214403A80002E3FF408AFBBF1000F05D0B34503D07E
S214403A905946484601F0E4F93146484601F0E0F917
S214403AA0F9E601230C93E3E5DDF81080404602F08A
S214403AB015F902460B463046394602F0DDFB002833
S214403AC07FF4C2AD08F1FF330493BDE5059A049B2D
S214403AD0D21A5B420A93002305920B93DAE55B42C7
S214403AE0059300230293CAE50A9F059D099E05E7B4
S214403AF0C3F120080AFA08F073E50C90B8E500BF59
S214403B000000244000230993049B219A13440D93FC
S214403B100133002B069340F38382069C2646002101
S214403B20172EC9F844100BD9012204235B0003F179
S214403B301400B042114602F10102F7D9C9F8441008
S214403B40484601F067F90E2C0790C9F840003FF64A
S214403B50E0AD002D3FF4DDAD04995746D846002928
S214403B60CDE90E7840F39282914B01F00F020E1190
S214403B7003EBC203F006D3E9004540F14C828D4B7F
S214403B8050465946D3E9082302F038FA06F00F06A5
S214403B9082468B464FF0030886B1864FF10709D51B
S214403BA020462946D7E9002302F0FEF808F101082E
S214403BB004460D46761007F10807EFD122462B46FD
S214403BC05046594602F01AFA06460F460C9B43B139
S214403BD00022794B3046394602F058FB002840F028
S214403BE02083404602F07AF832463B4602F0DCF844
S214403BF0724B002201F026FF069B0446A1F1507549
S214403C00002B00F0DF81049BDDF818801193099BA0
S214403C10002B00F09782664B694903EBC80353E9D3
S214403C200223002002F0EAF922462B4601F008FF64
S214403C3082468B463046394602F066FB044602F022
S214403C404DF802460B463046394601F0F9FE303410
S214403C50079DE4B206460F462C7002460B46504679
S214403C605946013502F030FB00284CD132463B46DF
S214403C700020514901F0E4FE02460B4650465946A4
S214403C8002F022FB002840F00D83B8F1010F40F30C
S214403C90B381079B98440DE00020474901F0D0FED1
S214403CA052465B4602F0F2FA002840F0FB82454559
S214403CB000F0A281504659460022424B02F074F86A
S214403CC00022404B82468B463046394602F06CF81E
S214403CD00F46064602F018FB044601F0FFFF024678
S214403CE00B463046394601F0ABFE3034E4B252461D
S214403CF05B4605F8014B06460F4602F0C7FA3246C9
S214403D003B460028C8D0119B0493C4E50023099382
S214403D10219B002B40F389811E461C460D9306933B
S214403D20FDE601230993F3E708940A9A0899484662
S214403D3001F0D0F9044611E6069B002B3FF7FCAC99
S214403D4040F0DA820022204BDDE9020102F02CF836
S214403D5052465B4602F0AEFADDF81880464600282A
S214403D6000F0F280219B079DDB4304934146484682
S214403D7001F076F8002E3FF48EAD8DE6109A002ABC
S214403D8000F0418203F233430A9F059DABE51C20B9
S214403D90059B03440593029B0344054402930EE6A9
S214403DA0209B012B40F382820B9F0120F3E500BF4E
S214403DB0886E4000506F40000000F03F00001C40FE
S214403DC00000E03F0000244000001440314600233D
S214403DD00A22484601F04EF80D9B002B064640F35B
S214403DE097820693002D05DD31462A46484601F067
S214403DF0C1F90646002F40F07C810596069B079A3F
S214403E00DDF814B0013BD31808930AF00103099378
S214403E101746C24651462046FFF7DEFA314605466B
S214403E20204601F0FFF95A4602905146484601F0B6
S214403E3019FAC268804605F13003002A49D1014686
S214403E402046069301F0EEF941460590484601F0BB
S214403E5007F8059A069B2AB9209919B909990029A5
S214403E6000F0368202990029C0F2E48005D12099FC
S214403E7019B90999002900F0DD80002A00F34D8128
S214403E80089A3B7007F101089742454600F0548176
S214403E90214600230A22484600F0ECFF5E450446D1
S214403EA031464FF000034FF00A0248460BD000F070
S214403EB0E1FF5946064600230A22484600F0DAFF4C
S214403EC047468346A6E700F0D5FF47460646834664
S214403ED0A0E701464846059300F0C2FF0122059B35
S214403EE0C0E74146204601F09DF90028BFF67DAD6B
S214403EF02146049C0023013C0A224846049400F0D4
S214403F00B9FF099B0446002B7FF460AF0D9B002B46
S214403F1040F3F681069370E5089C1FE5209B022B34
S214403F207FF767AD069B002B40F07981414605221E
S214403F30484600F09FFF01468046204601F072F951
S214403F40002808947FF70EAF049A07993123013270
S214403F5004920B704D1C09E7049A01320492079AAA
S214403F603123137088E501230993CDE5DDF81490DD
S214403F7091E4BAF1000F7FF404ADCBF31303002BAA
S214403F8040F03F812BF000473F0D3F0537B1059B82
S214403F9001330593029B0133029301270B9B0120BB
S214403FA0002B3FF4F8ACEDE4404601F097FE324675
S214403FB03B4601F0F9FE0022BF4B01F043FD0446AC
S214403FC0A1F15075304639460022BC4B01F038FD11
S214403FD022462B4606460F4602F076F980460028D3
S214403FE040F00581224605F100433046394602F04E
S214403FF04DF908B14646B5E6DDE90EABFFF789BB9D
S2144040000798FFF7AEBA0A9B0B9A0A97FB1A1A4410
S2144040100B92002761E4DDE90EAB4FF00208BBE5EA
S2144040201C460021C9F844108AE5012421940D94C9
S2144040300694F6E7002AD046CDF814B09A4611DD2D
S21440404021460122484601F095F84146044601F0D3
S214404050E9F8002840F34981BAF1390F00F00681AB
S21440406005F1310AB34687F800A07D1C059E0894EA
S21440407002E504D11AF0010F01D0EDE4154615F81B
S214404080013C302B05F1FF32F8D0F5E4049B5C424E
S214404090002C00F0BF808A4B04F00F0203EBC203F3
S2144040A0D3E90023DDE90E0101F07EFE2411064629
S2144040B00F4600F02A81834D4FF00208E20709D5EB
S2144040C030463946D5E9002301F06EFE08F1010876
S2144040D006460F46641005F10805EFD176E50799C8
S2144040E030220A70049A15F8014C01320492FFF708
S2144040F0D0BB7168484600F08DFE33699A1C054671
S214404100920006F10C010C3000F082FD2946012297
S214404110484601F02FF8059070E6392BCDF814B0DC
S214404120D04600F0A38003F1010AB34687F800A00A
S2144041307D1C059E08949FE45A46D046B3469A4650
S21440414016467DE45E4908F1FF3A01EBCA01224675
S2144041502B46D1E9000101F027FECDE91201394690
S214404160304602F0D1F8044601F0B8FD02460B4650
S2144041703046394601F064FC079A3034B8F1010FF6
S21440418006460F46147002F101051ED0079B03EB4E
S214404190080BA84600224C4B3046394601F004FE38
S2144041A00F46064602F0B0F8044601F097FD30345C
S2144041B002460B463046394601F042FC08F8014BB1
S2144041C0C34506460F46E5D1554400223F4BDDE940
S2144041D0120101F037FC32463B4602F057F8002801
S2144041E04CD0119B049315F8014CFFF746BB4FF09B
S2144041F000084646A8E6059B069A9D1A0023FFF748
S21440420072BB0027CAE6149B0A9F059DC3F136037E
S214404210FFF769BBDDE90E674FF00208D6E4089465
S214404220A0E5069B002B3FF4BFAE0D9B002B7FF70F
S214404230E3AE0022244B3046394601F0B5FD064633
S2144042400F4608F1010001F049FD32463B4601F0B9
S214404250ABFD0022184B01F0F5FB049ADDF83480E4
S214404260013A0446A1F150751192D0E43922B34682
S2144042700894059E3A707D1CFFF7F0BBDDE91223DB
S2144042800020124901F0DCFB32463B4602F01CF8A7
S21440429008B9B1E6154615F8013C302B05F1FF325A
S2144042A0F8D030E5119B0493FFF7E7BABAF1000F58
S2144042B07FF47AAD61E600BF00001C400000144069
S2144042C0886E4000506F4000000024400000E03FF1
S2144042D0392BCDF814B0D046DDF808B09A46C5D094
S2144042E0BBF1000F3FF7BCAEBCE67FF4BBAE1AF0A6
S2144042F0010F3FF4B7AEAFE64FF00008464631E553
S214404300209B022B21DC0D9B04E64FF002085DE467
S214404310209B022B19DC0D9B63E50024C9F8444022
S2144043202146484600F076FD4FF0FF3306930D9346
S214404330012307902194C9F840000993FFF7E9B993
S2144043403FF43DABC0F13C0022E50D9B0693E9E50A
S2144043500125FFF7A8B900BF38B5074D074C2C1B01
S214404360A41005D0013C55F8043D9847002CF9D1DF
S214404370BDE8384002F010BEA86F4000A46F400071
S214404380F8B5234F0C46064600F040FDBB685D6816
S21440439025F00305291B01F6EF7121F47F6121F01A
S2144043A00F01A1F58054B4F5805F07DB002130464D
S2144043B001F02EFABB682B44984204D0304600F0F9
S2144043C027FD0020F8BD6142304601F021FA013059
S2144043D00DD0104BBA6819682D1B45F001053046C4
S2144043E0091B5560196000F013FD0120F8BD00213F
S2144043F0304601F00DFABA68831A0F2BDEDD064C04
S2144044000449246843F00103001B53600860D5E765
S2144044107C040020FC0C002088080020002945D0A1
S2144044202DE9F0410D46804600F0F0FC55F8047C3E
S2144044306A4927F00103A5F10804E2188E6850681F
S214404440B24220F0030062D0FE0750600BD455F80D
S214404450087CE41B01F1080EA56875453B446FD007
S214404460E768EF60BD6015186D68ED0742D543F00C
S21440447001026260E350B3F5007F18D2DB085A1C95
S2144044804D6851F83270A76001209B1000FA03F384
S21440449001EBC2001D430838E0604D6041F83240F1
S2144044A0FC604046BDE8F04100F0B2BC70475A0A96
S2144044B0042A53D89A0902F139077F0002F13805D9
S2144044C001EB870051F827204449083890424DD0E8
S2144044D0516821F003018B4202D292689042F7D194
S2144044E0D068E060A2608460D4604046BDE8F04199
S2144044F000F08EBC95683A4FBD4203443FD0D0682A
S214404500E86043F0010285606260E350B3E7FF076E
S214404510034407D455F8082CA41A1344A068E2684C
S214404520C26090602F4A126843F001009342606078
S2144045308C60B6D32C4B40461968FFF721FFB0E796
S21440454011184968C90744D49168D268CA600344C0
S21440455043F0010091606060E350A2E7142A17D848
S21440456002F15C077F0002F15B05A9E7AA104B68E1
S214404570012505FA02F213434B600246B1E743F0C9
S21440458001024C610C61E560A5606260E35088E71B
S214404590542A06D81A0B02F16F077F0002F16E0507
S2144045A08EE7B2F5AA7F06D8DA0B02F178077F00CD
S2144045B002F1770584E740F25450824206D89A0CBE
S2144045C002F17D077F0002F17C0579E7FE277E2514
S2144045D076E743F001026260E35062E77C04002025
S2144045E08404002084080020F80C0020004870470F
S2144045F0440400202DE9F04F01F10B05162D83B041
S214404600064640F29F8035F0070500F1BF80A9427C
S21440461000F2BC8000F0FAFBB5F5FC7FC0F09C824F
S2144046206B0A00F0BA80042B00F28381A80900F1DF
S214404630390E4FEA4E033830C44F07EB8303A3F1DD
S21440464008015C68A14207D1ACE0002A80F2AC8049
S214404650E468A14200F0A680636823F003035A1B77
S2144046600F2AF2DDB9493C6901F1080E744500F0A5
S214404670B381636823F003035A1B0F2A00F3998122
S214404680002AC1F814E0C1F810E080F29E80B3F52D
S214404690007F80F06781DB0803F1010C01229B104C
S2144046A002FA03F34A6851F83C80C4F8088001EBEC
S2144046B0CC091A43A9F10803E3604A6041F83C403C
S2144046C0C8F80C40831001249C40944200F28A8033
S2144046D0144206D120F003006400144200F10400A6
S2144046E0FAD007EBC009CC468046DCF80C108C4567
S2144046F007D173E1002A80F28181C9688C4500F0B9
S2144047006D814B6823F003035A1B0F2AF2DD0C46DB
S214404710D1F80CC054F8088F4B1945F001054D6090
S21440472042F00101C8F80CC03046CCF808807B61E6
S2144047303B61C3F80CE0C3F808E059609A5000F0BB
S21440474067FB1FE0102921D800F060FB10250623E8
S21440475002207E4F07EB8303A3F108025C68944275
S21440476000F045816368E168A56823F003032344AD
S21440477030465A68E96042F001028D605A6000F0A7
S21440478047FB0834204603B0BDE8F08F00240C23D6
S2144047902046336003B0BDE8F08F80234FF0400ED4
S2144047A03F2049E770465DE72344E1685A68A568BC
S2144047B042F00102E96030468D605A6000F028FB06
S2144047C00834204603B0BDE8F08F234430465A688C
S2144047D042F001025A6000F01BFB0834204603B04A
S2144047E0BDE8F08FBC68636823F00308A84504D38F
S2144047F0C5EB08030F2B00F38C80554BDFF8609118
S2144048001A68D9F8003001332A4404EB080A00F04D
S214404810608102F580520F3222F47F6222F00F024E
S21440482011463046019200F0F3FFB0F1FF3F834659
S214404830019A00F05881824500F2FC80454B196889
S214404840DA451144196000F05381D9F80000DFF8CA
S21440485010E101301BBFCAEB0B0A5144CEF800B042
S21440486019601BF0070100F01781C1F10800C1F57F
S2144048708051834408315A44C2F30B02C2EB01090B
S21440488049463046019300F0C3FF431C019B00F0AD
S2144048903F81CBEB00024A4442F001021968C7F858
S2144048A008B04944BC42CBF804201960DFF8A49015
S2144048B016D0B8F10F0F40F2FD806268A8F10C03E5
S2144048C023F00703E01802F001024FF0050E1A43EA
S2144048D00F2B6260C0F804E0C0F808E000F21C81CC
S2144048E01D4BBC681A68914288BF19601B4B1A68FA
S2144048F09142626888BF196022F003029542A2EB9B
S214404900050301D80F2B04DC304600F081FA002462
S21440491038E7621943F0010345F00105656030460B
S214404920BA60536000F074FA0834204603B0BDE81D
S214404930F08F142B71D9542B00F2A480280B00F171
S2144049406F0E4FEA4E036E3076E600BF7C040020C2
S214404950F80C0020FC0C0020F40C0020F00C00208A
S214404960880800205A0A042A5ED9142A00F2B38026
S21440497002F15C0149005B3207EB810C57F82110CD
S214404980DFF8DC81ACF1080C8C4500F088804A6882
S21440499022F00302934202D289688C45F7D1D1F8BF
S2144049A00CC07A68C4F80CC0A160CCF80840CC6053
S2144049B088E6631942F0010745F001056560304618
S2144049C04B610B61C3F80CE0C3F808E05F609A5097
S2144049D0083400F01DFAD5E64A6873E608F1010887
S2144049E018F0030F0CF1080C7FF47FAE30E0DC6863
S2144049F0A34208BF02303FF435AEB3E60B440C4644
S214404A005A68C96854F8085F42F001025A60304656
S214404A10E9608D6000F0FCF9B4E603F15C0E03F14A
S214404A205B004FEA4E0307E69A0902F13901490056
S214404A303832A1E7BC424A4B3FF400AF9C686268FC
S214404A4022F003025AE759F80839994540F0828027
S214404A5010F0030F00F1FF30F5D17B6823EA040322
S214404A607B6064009C423FF6BDAE002C3FF4BAAE7D
S214404A701C4240467FF435AE64001C4200F1040000
S214404A80FAD02EE6B3F5AA7F18D8E80B00F1780ED8
S214404A904FEA4E037730CFE54FF48051EBE60121E5
S214404AA0D8F80430921001FA02F21A43C8F80420EB
S214404AB0614677E70123CBF8043025E740F25452AD
S214404AC0934220D8A80C00F17D0E4FEA4E037C306E
S214404AD0B2E51032A4E6542A26D81A0B02F16F012A
S214404AE049006E3248E7BC68626822F0030205E778
S214404AF0CAF30B0000287FF4A8AE4244BB6842F0DD
S214404B0001025A60ECE6FE234FF07F0E7E2093E5CE
S214404B1001224FF00009C1E604F108013046FFF7D4
S214404B207DFCD9F80010DBE6B2F5AA7F05D8DA0B93
S214404B3002F17801490077321EE740F254518A422A
S214404B4005D89A0C02F17D0149007C3214E7FE211B
S214404B507E2211E77B6884E7E808431C5B00F8E5A3
S214404B607C04002000000000000000000000000060
S214404B7001F0FF01102A2BDB10F0070F08D010F8C9
S214404B80013B013A8B422DD010F0070F42B3F6D1CD
S214404B90F0B441EA012141EA014122F007047FF0E6
S214404BA000070023F0E80256083C85EA010586EA3D
S214404BB0010685FA47F5A3FA87F586FA47F6A5FA79
S214404BC087F68EB9EED1F0BC01F0FF0102F0070285
S214404BD032B110F8013B013A83EA010313B1F8D130
S214404BE00020704701387047002D06BF3546033811
S214404BF0073815F0010F07D1013015F4807F02BF4A
S214404C00013015F4C03F0130F0BC0138704700BF9A
S214404C10844641EA000313F003036DD1403A41D382
S214404C2051F8043B40F8043B51F8043B40F8043B41
S214404C3051F8043B40F8043B51F8043B40F8043B31
S214404C4051F8043B40F8043B51F8043B40F8043B21
S214404C5051F8043B40F8043B51F8043B40F8043B11
S214404C6051F8043B40F8043B51F8043B40F8043B01
S214404C7051F8043B40F8043B51F8043B40F8043BF1
S214404C8051F8043B40F8043B51F8043B40F8043BE1
S214404C9051F8043B40F8043B51F8043B40F8043BD1
S214404CA0403ABDD2303211D351F8043B40F8043B71
S214404CB051F8043B40F8043B51F8043B40F8043BB1
S214404CC051F8043B40F8043B103AEDD20C3205D381
S214404CD051F8043B40F8043B043AF9D2043208D079
S214404CE0D2071CBF11F8013B00F8013B01D30B88EB
S214404CF003806046704700BF082A13D38B078DD0C9
S214404D0010F003038AD0C3F10403D21ADB071CBF9A
S214404D1011F8013B00F8013B80D331F8023B20F804
S214404D20023B7BE7043AD9D3013A11F8013B00F83D
S214404D30013BF9D20B7803704B7843708B788370C5
S214404D40604670478842F0B50DD98B1898420AD213
S214404D508118002A51D09A1A13F8014D01F8014DD6
S214404D609342F9D1F0BD0F2A48D941EA00039B0788
S214404D7046D100F1100401F11003154653F8106CAB
S214404D8044F8106C53F80C6C44F80C6C53F8086CF0
S214404D9044F8086C103D53F8046C44F8046C0F2D2E
S214404DA003F1100304F11004E8D8A2F1100323F035
S214404DB00F0302F00F0E1033BEF1030F19440344E5
S214404DC021D91E1F0D467446043C55F8047B46F810
S214404DD0047F032CF8D8AEF1040424F00304043412
S214404DE02344214402F0030262B1013B0A4411F815
S214404DF0014B03F8014F8A42F9D1F0BD0346F3E771
S214404E000346F2E7F0BD7246EEE700BF704700BFCC
S214404E10704700BFC36C70B505460C464BB153F89F
S214404E20240080B1026843F8242000230361C36055
S214404E3070BD2122042100F0CFFDE864034600281F
S214404E40EDD1002070BD012101FA04F6721D2846FE
S214404E50920000F0C1FD0028F3D044608660E4E78D
S214404E6031B1C36C4A6853F82200086043F82210F8
S214404E70704700BFF0B50C6983B00D46064601F199
S214404E80140E0027DEF8000081B202FB01310B0C45
S214404E90000C02FB003389B2013701EB0341BC42F0
S214404EA04EF8041B4FEA1343ECDC3BB1AA6894422D
S214404EB007DA05EB8402013453612C61284603B0BF
S214404EC0F0BD6968019301313046FFF7A3FF2A69B8
S214404ED0023205F10C01074692000C30FFF798FEAF
S214404EE0F26C6968019B52F82100286042F8215014
S214404EF03D46DEE7030C1B04B3B90004102310F054
S214404F007F4F04BF0002083310F0704F04BF00010B
S214404F10043310F0404F04BF80000233002807DB04
S214404F20420003D4202070470023E8E7581C70470F
S214404F3018467047036813F0070207D0D90720D4F5
S214404F409A0720D49B0803600220704799B209B99B
S214404F501B0C102213F0FF0F04BF1B0A0832190760
S214404F6004BF1B090432990704BF9B080232D907C5
S214404F7004D45B0801D120207047013203601046FC
S214404F807047002070475B0803600120704700BFF1
S214404F9010B50C460121FFF73DFF01224461026136
S214404FA010BD00BF2DE9F04F0D691769BD4283B0B3
S214404FB00C46164604DA2A4634463D460E46174602
S214404FC0A368616805EB07089845C8BF0131FFF73D
S214404FD021FF00F1140C0CEB8809CC45009005D25B
S214404FE06346002143F8041B9945FBD806F114029A
S214404FF002EB870A04F11403524503EB850E54D2A4
S214405000CDF80490994652F8043B1FFA83FBBBF157
S214405010000F20D000204F466646054600E01E465C
S21440502057F8044B3068A1B283B20BFB0131240C15
S214405030000C4B190BFB040000EB134099B23346AF
S21440504041EA0041BE454FEA104543F8041BE6D806
S214405050756052F8043C5FEA134B20D0DCF8003011
S214405060674618464D46002100E037462C88000C1F
S2144050700BFB040001449CB23E4644EA014346F81A
S214405080043B786855F8044B83B2240C0BFB04347D
S21440509004EB1143AE454FEA1341E6D87B60924598
S2144050A00CF1040CAFD8DDF80490B8F1000F0BDD1E
S2144050B059F8043CA9F104091BB105E059F8043D30
S2144050C013B9B8F10108F9D10098C0F8108003B0C0
S2144050D0BDE8F08F12F003032DE9F0411446074671
S2144050E02ED10E46A4101CD0BD6C95B3E3074FF0EE
S2144050F0000806D4641014D02868A8B10546E30713
S214405100F8D52A4631463846FFF74CFFB6B17268A6
S214405110FB6C641053F82210316043F82260064658
S214405120EAD13046BDE8F0812A4629463846FFF7A0
S21440513039FF2860C0F800800546E0E70646D9E714
S2144051405A1E0B4D002355F82220FFF793FE0646C5
S214405150C8E701213846FFF75DFE40F27121012283
S2144051600023416102610546B8640360BEE700BFA4
S214405170786F40002DE9F04791460A698B684FEA00
S214405180691404EB020808F101059D420E4682466A
S214405190496804DD5B009D4201F10101FADC50469E
S2144051A0FFF738FE002C00F1140238DD02EB8403D2
S2144051B0002142F8041B9342FBD1346906F11401E6
S2144051C019F01F0901EB840E21D0C9F120020024FA
S2144051D00F6807FA09FC4CEA04049C4643F8044B63
S2144051E051F8044B8E4524FA02F4F1D8CCF804402A
S2144051F00CB108F10205DAF84C307268013D53F8FC
S21440520022100561316043F82260BDE8F087043B18
S21440521051F8042B43F8042F8E45F9D8EBE7134694
S214405220CBE700BF02690B69D21A12D19B0014303B
S2144052301431194410B4034401E098420BD253F899
S214405240044D51F8042D9442F7D007D3012010BCEA
S214405250704710467047002010BC70474FF0FF3034
S214405260F5E700BF2DE9F8430B690F4611695B1A55
S214405270002B904617D1890007F1140208F1140557
S2144052805318294401E09A425ED253F8046D51F80F
S214405290044DA642F7D060D23B46144647464FF0F0
S2144052A00109984606E05DDB07F1140502F1140497
S2144052B04FF000097968FFF7ADFDD8F810303E6929
S2144052C0C0F80C9004EB830CA64605EB860700F16D
S2144052D0140400235EF8041B55F8048B8AB213FAB4
S2144052E088F3090C9A1AC1EB184303EB224392B297
S2144052F042EA0342F44544F8042B4FEA2343E9D8F4
S214405300AF4217D9A446294651F804EB13FA8EF259
S214405310131403EB1E4392B242EA03428F424CF808
S214405320042B4FEA2343EFD8ED433D4425F00305D5
S21440533004352C44043C22B954F8043D013E002B6D
S214405340FAD00661BDE8F8830021FFF763FD01222D
S214405350002302614361BDE8F8832C464FF0000904
S2144053601546A7E73B4607F1140408F114054746DF
S2144053704FF0010998469DE72DE9F04182B00121A2
S2144053801C46C3F30A571546089EFFF743FDC4F371
S214405390130480460FB144F4801401941DB302A850
S2144053A040F8085DFFF7C6FD002834D19DE80C00A4
S2144053B0C8F81420002B0CBF01210221C8F8183071
S2144053C0C8F81010DFB908EB8103A0F23240306015
S2144053D01869FFF78FFD099BC0EB411018604046E7
S2144053E002B0BDE8F08101A8FFF7A4FD019BC8F814
S2144053F0143001212030C8F81010002FE3D0099B4C
S214405400A7F233470744C0F135003760186040467E
S21440541002B0BDE8F0819DE80C00C0F1200103FA1F
S21440542001F10A43C3400193C8F81420C2E700BF05
S2144054302DE9F04F174683B0002900F0C1800E4694
S214405440814607F10B05FFF7E1FC56F804EC162DF4
S2144054502EF00304A6F1080840D810221546AF42A5
S21440546041D8944275DAC94B996808EB04008842E3
S214405470416800F0D98021F0010303445B68DB07F4
S2144054807DD51EF0010F35D039464846FFF7B2F8B5
S2144054900746E0B156F8043C23F001034344A0F12C
S2144054A008029A4200F04481221F242A00F23181E9
S2144054B0132A00F204810346324611681960516887
S2144054C0596092689A6031464846FEF7A7FF4846BC
S2144054D0FFF79EFC384603B0BDE8F08F25F0070581
S2144054E0002D2A46BBDA0C230020C9F8003003B052
S2144054F0BDE8F08F56F8083CC3EB080ADAF80430EB
S21440550023F0030C04EB0C039342BDDB5746DAF85A
S2144055100C1057F8080F221F242AC160886000F23A
S2144055201781132A40F212813168CAF80810716850
S214405530CAF80C101B2A00F22B8108360AF110021A
S2144055403168116071685160B16891603E461C4692
S214405550D046631B0F2B1DD8D8F8043003F0010348
S21440556023434444C8F80430636843F0010363604F
S2144055704846FFF74DFC304603B0BDE8F08F21F0BB
S21440558003012144914221DBC36882680C46D36004
S2144055909A60DEE7D8F8042008EB050102F0010225
S2144055A0154343F001020B44C8F804504A605A6859
S2144055B042F0010208315A604846FEF72FFFD7E70F
S2144055C0114603B0BDE8F04FFFF714B81EF0010FC8
S2144055D07FF45AAF56F8083CC3EB080ADAF80430B2
S2144055E023F0030C01EB0C0E96458BDBC3688268F8
S2144055F05746D3609A6057F8081FDAF80C30CB60ED
S214405600221F242A996000F29980132A62D93368AF
S214405610CAF808307368CAF80C301B2A00F2A0801B
S21440562008360AF1100356E021F0030BA34405F1B7
S2144056301000834559DA1EF0010F7FF425AF56F867
S214405640081CC1EB080ADAF8041021F0030CE34406
S21440565058453FF757AF5746DAF80C1057F8080F3B
S214405660221F242AC160886000F2B480132A40F2C8
S214405670A5803168CAF808107168CAF80C101B2A51
S21440568000F2AF8008360AF1100231681160716886
S2144056905160B16891600AEB0501C5EB0B0242F020
S2144056A0010299604A60DAF8043003F001031D43B2
S2144056B04846CAF80450FFF7ABFB38465CE7336809
S2144056C00360736843601B2A27D800F1080306F17D
S2144056D00802F2E63B4632681A6072685A60B26860
S2144056E09A603E467446D04633E708EB0501C5EB64
S2144056F00B0B4BF0010299604A6056F8043C03F0ED
S21440570001031D43484646F8045CFFF781FB3046DC
S21440571032E73146FFF716FBD5E6B3688360F36899
S214405720C360242A28D000F1100306F11002C4E614
S21440573050F8043C23F003031C440AE7314638463D
S2144057407446D046FFF7FEFA3E4602E73A46F7E68C
S214405750314638461C46D046FFF7F4FA3E46F8E651
S214405760B368CAF81030F368CAF81430242A1BD03D
S21440577010360AF11803AEE7336903617369436173
S21440578006F1180200F1180397E600BF7C040020DB
S214405790B168CAF81010F168CAF81410242A0FD05D
S2144057A010360AF11802CBE63369CAF81830736926
S2144057B0CAF81C3018360AF120038CE73A4664E7EC
S2144057C03269CAF818207269CAF81C2018360AF1DD
S2144057D02002B5E6314638460193FFF7B3FA019BFF
S2144057E059E7B168CAF81010F168CAF81410242AAC
S2144057F003D010360AF1180247E73269CAF8182073
S2144058007269CAF81C2018360AF120023DE700BF2C
S21440581038B5074C0023054608462360FBF7C6FF0D
S214405820431C00D038BD2368002BFBD02B6038BD0E
S214405830380D00202DE9F04F936883B09046002B3A
S21440584072D083464FF00009166808688B680D468C
S2144058504C46002C45D09C421F469A4646D3AB89C0
S21440586013F4906F2DD06F69296907EB4707C1EB9A
S214405870000A07EBD777601C7F105044B8423A4680
S21440588084BF07463A465B0533D511465846FEF771
S214405890B1FE002837D0524629690190FFF7B8F983
S2144058A0AA89019B22F4906242F08002AA81CAEB48
S2144058B0070203EB0A006F612B612860AA60274647
S2144058C0A24652464946FFF73DFAD8F80820AB684C
