:020000040040BA
:10000000603D0020D5124000D1124000D1124000C6
:10001000D1124000D1124000D11240000000000077
:10002000000000000000000000000000D1124000AD
:10003000D112400000000000D1124000D112400057
:10004000D1124000D1124000D1124000D112400024
:10005000D1124000D1124000D1124000D112400014
:10006000D1124000D11240000000000055114000A4
:10007000691140007D114000D1124000D1124000B2
:100080000000000000000000D1124000D11240002A
:10009000D1124000D1124000D11240009115400011
:1000A000D1124000D1124000D1124000D1124000C4
:1000B000D1124000B5154000D1124000D1124000CD
:1000C000D1124000D1124000D112400010B5054CB1
:1000D000237833B9044B13B10448AFF300800123F4
:1000E000237010BDAC0800200000000050884000C4
:1000F000084B10B51BB108490848AFF30080084809
:10010000036803B910BD074B002BFBD0BDE81040BE
:10011000184700BF00000000B008002050884000D1
:10012000508840000000000090B92DE9F0410C46D5
:100130009046002A0FDD8F18084E094D3068214681
:100140002B6898470134A742F8D14046BDE8F081BA
:100150004FF0FF3070470020BDE8F081440D0020D3
:100160003C0D002070B483B0C0F11100102828BFEE
:100170001020002808BF01200021104E4FF4005528
:10018000182475630194019B5A1E0192002BFAD129
:1001900035630194019B5A1E0192002BFAD1013163
:1001A0008142EED34FF400330193019B5A1E01921A
:1001B000002BFAD103B070BC704700BF00120E4094
:1001C00082B04FF40052064B5A634FF40033019350
:1001D000019B5A1E0192002BFAD102B0704700BF5A
:1001E00000120E4009014250704700BF00EB0111A0
:1001F0004A60704700EB01118A60704700EB011103
:10020000CA6070470A4B1B78012B06D14FF0C243DE
:1002100000221A7022221A707047022B07D14FF069
:10022000C2432C221A7000221A703C221A707047A6
:10023000880C0020C0F30742034B1A70C0F307225A
:100240001A70C0B218707047020000612DE9F843BF
:100250000746884631F0070918D004460026124D9B
:1002600057F82600A8476068A847A068A847E06834
:10027000A8472069A8476069A847A069A847E0691E
:10028000A847083620344E45EAD300E00026B045A2
:1002900008D907EB8604044D54F8040BA84701362F
:1002A000B045F9D8BDE8F883350240004FF0C243AD
:1002B00000221A7018700A0A02331A70C9B2197033
:1002C000704700BF10B44FF0C24300241C70187078
:1002D0004AB14B1E501E51FA80F1044813F8012F09
:1002E00002708B42FAD110BC704700BF020000615F
:1002F00082B000230193019B984211D90021094A41
:100300000191019B934205D8019B01330193019B0D
:100310009342F9D9019B01330193019B8342EFD3AF
:1003200002B070479F86010030B4154C2468056800
:10033000A54224BF04F1FF3505601568AC429CBF9F
:1003400004F1FF3414600F4C24680D68A54224BFEB
:1003500004F1FF350D601D68AC429CBF04F1FF3411
:100360001C6004681568AC4284BF056014600A68AC
:100370001868824284BF08601A6030BC704700BFB2
:10038000000000200400002082B04FF0C243002291
:100390001A70D3221A7002331A788DF800201A7856
:1003A0008DF801201A788DF802201B78DBB28DF8C9
:1003B0000330D2B203EB02239BB249F241329342A3
:1003C00004D102220E4B1A70002017E04FF0C243F6
:1003D00000221A701A7002331A788DF800201B78E8
:1003E000D2B203EB02239BB249F22532934204D1ED
:1003F0000122034B1A70002000E0012002B0704778
:10040000880C002008B5094B1B78012B05D140F260
:1004100033110720064B984708BD022B04D1002258
:1004200011462920034B984708BD00BF880C0020C7
:10043000AD024000C5024000044A131F02F56F726E
:1004400043F8040F9342FBD1704700BFC808002057
:100450002DE9F04182B00C4617461E46234B1B780F
:10046000012B14D185B229465020DFF88880C0477F
:10047000781E291889B25120C047A4B221465220C3
:10048000C047711E214489B25320C0472AE0022B85
:1004900028D1030A8DF80430C3B28DF80530013A33
:1004A0001044000A8DF8060017461F448DF80770A7
:1004B00004220DEB02012A200D4DA847230A8DF8D6
:1004C0000430E3B28DF80530721E1444240A8DF80E
:1004D000064016461E448DF8076004220DEB02010B
:1004E0002B20A84702B0BDE8F08100BF880C002097
:1004F000C5024000AD02400038B5064B1B78012B09
:1005000007D10C4601462020034DA8472146212053
:10051000A84738BD880C0020AD0240002DE9F0430B
:1005200083B00646AC4B9847002840F04F81F0223C
:10053000AA4B1A604FF4A072A94B1A60A94B1B7802
:10054000012B40F0B18033210720A74CA0470021A8
:100550001020A04701210020A0474FF48071012006
:10056000A0474FF4E0610220A04700210420A047EB
:1005700040F207210820A04700210920A0470021C0
:100580000A20A04700210C20A04700210D20A047F1
:1005900000210F20A04700211020A047002111209A
:1005A000A04700211220A04700211320A047C82007
:1005B0008E4DA84741F290211020A04740F22721FC
:1005C0001120A0473220A8471B211220A04732202B
:1005D000A8474FF488511320A04719212920A0478C
:1005E0000D212B20A0473220A84700213020A04712
:1005F0004FF401713120A0474FF400713220A04721
:1006000007213520A04741F204413620A04740F29F
:1006100005713720A04740F205313820A04740F24D
:1006200007713920A04740F201713C20A0470E21FC
:100630003D20A0474DF210010320A0474FF4274171
:100640006020A04701216120A04700216A20A04727
:1006500000218020A04700218120A0470021822086
:10066000A04700218320A04700218420A04700212B
:100670008520A04710219020A0474FF4C061922010
:10068000A0474FF488719520A04773683268002115
:100690000846574CA047B068564B9847002108467B
:1006A000554B9847002094E0022B40F0918039236D
:1006B0008DF800302C238DF8013000248DF8024095
:1006C00034238DF8033002278DF804700522694623
:1006D000CB204A4DA8478DF80040AA238DF8013061
:1006E000B0238DF8023003226946CF20A84730237B
:1006F0008DF8003001226946F720A84725238DF8A0
:10070000003001226946C020A8474FF011098DF83A
:10071000009001226946C120A8475C238DF8003073
:100720004C238DF801303A466946C520A8479423EA
:100730008DF8003001226946C720A84785238DF82F
:1007400000304FF001088DF8018078238DF80230D9
:1007500003226946E820A8478DF800408DF8014043
:100760003A466946EA20A84748238DF800304246B9
:1007700069463620A84706238DF800304246694670
:100780003A20A8478DF8007082238DF80130272386
:100790008DF802308DF8034004226946B620A84740
:1007A0007368326821462046114FB847B068114B34
:1007B0009847224669464846A8470A200B4B984767
:1007C000224669462920A847204602E0012000E091
:1007D000012003B0BDE8F083890340000000002041
:1007E00004000020880C0020AD024000F10240000F
:1007F0005104400039044000F9044000C5024000A3
:1008000010B5164B1B68834221D9154B1B688B42D0
:100810001FD9144B1B78012B0BD189B280B2124B1C
:100820009847124B9847124B1868124B9847002074
:1008300010BD022B0FD100231A460F4CA0470B4BC3
:1008400098470B4B18680B4B9847002010BD0120B0
:1008500010BD012010BD002010BD00BF0000002011
:1008600004000020880C0020F9044000050240002C
:10087000C808002035024000510440002DE9F04135
:1008800084B003900291019204AA42F8103D1346ED
:1008900001AA02A903A8214CA04703980299009B32
:1008A0000133019A01325B1A121A1D4CA047BDF8A0
:1008B0000810BDF80C001B4B98471B4B9847039A38
:1008C000019B9A1A009B03F10108029BC3EB0808E5
:1008D00002FB0888154CA4FB0834E40907D0144F28
:1008E000F026144D31463846A847013CFAD10F494D
:1008F000A1FB0831C909C1EB0111A8EB01110C489A
:100900000C4B98470C4B1B680C4A12680021084698
:10091000034CA04704B0BDE8F08100BF29034000AC
:1009200051044000F904400005024000898888888D
:10093000C80800204D0240000400002000000020F4
:100940002DE9F04F85B0039002921378002B45D02B
:100950008A460190DFF890800A2B04D10AF1100A30
:10096000039B019334E003EB83031E4E06EB8303EA
:10097000A3F27F26019F3B460A3300930AF1070941
:100980000724B3465D4616F8013C234113F0010FDE
:1009900003D0C4EB09013846C047013CB4F1FF3F26
:1009A000F0D107240AF10F0B2B78234113F0010F2C
:1009B00003D0C4EB0B013846C047013C012CF3D1F6
:1009C00002360137009BBB42DAD1019B0C33019305
:1009D000029A12F8013F0292002BBDD105B0BDE88A
:1009E000F08F00BFBC7E40000108400030B40124FD
:1009F00004600025456040F20224C0F82041C0F8A0
:100A00000451C0F8145144685200B1FBF2F14A1E7F
:100A1000120292B223431A434260284630BC704708
:100A20004368D201D2B2194311434160704700BFFD
:100A300010B44468090601F0706122430A431B07A1
:100A400003F040531343436010BC7047022303601C
:100A5000704700BF012303FA01F10161704700BF35
:100A6000006A704741627047006B7047D0F894305D
:100A700043F01003C0F89430704700BF10B48901F0
:100A80004318022444504FF0FF319962196A5A60AA
:100A900010BC7047890105234350704700EB81115A
:100AA000CA61704700EB81114A62704700EB811107
:100AB000086A7047F0B486B00224019408240294B6
:100AC00020240394802404940A9CE40B0594B0EB46
:100AD000510F1CD84C0CA0421FD201AE012556F874
:100AE000044FB1FBF4F4270C844212D3874215D98A
:100AF0000135052DF3D1002013E006A901EB850196
:100B000051F8141C116033B11D60012009E0002070
:100B100007E0002005E0012003E00025002AECD1D9
:100B2000F1E706B0F0BC70470138022815D82DE96E
:100B3000F0410E4614469AB10D46DFF838800C4F4E
:100B4000D8F8000015F8011B3B68984700280ADB1D
:100B5000A81B013CF4D1BDE8F0814FF0FF30704795
:100B60000020BDE8F0814FF0FF30BDE8F08100BF0C
:100B7000400D0020440D002010B50E480E4B984744
:100B80003E2100200D4B98470D4CA0470028FCD07B
:100B90000C4B98470C4A0D4B9A620D4CA04700280D
:100BA000FCD010200B4B98470B4B98470148024B49
:100BB000984710BD000E270799144000F911400016
:100BC0004D1240005D124000013F132000040E4012
:100BD0006D124000911140008513400038B54FF46C
:100BE0000042464B5A600B20454CA0470C20A047C2
:100BF0000D20A0474FF060511320424CA0474FF00A
:100C000060511420A04740492320A0473F494C2071
:100C1000A0474FF000624FF4C0613D483D4B9847FC
:100C20004FF080510020A0474FF080510820A0478E
:100C30004FF080515220A0474FF000610C20A04798
:100C40004FF000610D20A0474FF000610E20A0473B
:100C50004FF000610B20A0474FF000611520A04726
:100C60004FF000611620A0474FF040511720A047D9
:100C70001720294B9847294D29464020A04729464F
:100C80004120A04729464220A04729464320A047AB
:100C900029464420A04729464520A047294646200A
:100CA000A04729464720A04729464B20A047294670
:100CB0004820A04729464F20A04729465320A04757
:100CC0004FF040514D20A04705F100552946102016
:100CD000A04729461120A0474FF000610C20A047F3
:100CE0004FF000610D20A0474FF000610E20A0479B
:100CF0004FF000610B20A04738BD00BF50140E40DC
:100D00007D124000810E4000790000285900002823
:100D1000000E0E40A50F4000650E400001000008C7
:100D2000C0F8841052004FF40043B3FBF2F2013AD2
:100D3000C2F30D02C0F88C20704700BF4264B1F1CD
:100D4000C05F2FD007D8B1F1006F14D0B1F1805F30
:100D50001ED039B97047B1F1205F36D004D8B1F157
:100D6000005F29D042607047B1F1405F2DD0B1F1F2
:100D7000605F2AD0F6E710B4046F016FD3432140BF
:100D800019400167446F416F21400B4043671AE0EF
:100D9000036F13430367416F436F0B4023EA020362
:100DA0004367DFE7016F036F0B4023EA020303672A
:100DB000436F13434367D5E7036F13430367436FE1
:100DC00013434367CEE7426010BC7047416412F0A2
:100DD000010F14BF4166016612F00A0F14BF0162D1
:100DE000416212F0020F02D0C0F8801004E012F04D
:100DF000080F18BFC0F8841041610160704700BF40
:100E000010B44164019C0CB1416600E001660BB175
:100E1000016500E041650AB1016300E041630161E1
:100E2000016010BC704700BF12F0100F10D0C0F866
:100E3000B01012F0200F14BFC0F8D410C0F8D010BA
:100E400012F0400F14BFC0F8C010C0F8C4107047B3
:100E5000C0F8B410704700BF01647047C06C7047A1
:100E6000806C7047430903F5001303F207735B02BC
:100E700000F01F00012202FA00F05863704700BF23
:100E800070B582B00D46430903F5001303F20773F2
:100E90005C0201F0F043B3F1005F47D009D8B3F131
:100EA000805F21D0B3F1C05F2FD0B3F1006F6FD15D
:100EB00009E0B3F1405F55D0B3F1605F52D0B3F1B8
:100EC000205F44D064E000F01F00012686403246D7
:100ED0004FF000612046304B984715F0010F14BFCA
:100EE00066662666012054E000F01F000126864059
:100EF00032464FF080512046274B984715F0010F9E
:100F000014BF66662666012043E000F01F0001263C
:100F1000864032464FF0C05120461F4B984715F08F
:100F2000010F14BF66662666012032E000F01F0044
:100F30000126864032464FF000512046164B984716
:100F400015F0010F14BF66662666012021E000F04F
:100F50001F0101262A4606FA01F120460F4B984749
:100F6000304616E005F0605200F01F01012605EA48
:100F700006030093C5F38003B2F1605F14BF002243
:100F8000012206FA01F12046054CA047304600E058
:100F9000002002B070BD00BF3D0D4000CD0D4000EF
:100FA000010E400070B582B005460E46144602F0B0
:100FB000F043B3F1005F38D009D8B3F1805F1CD0A3
:100FC000B3F1C05F25D0B3F1006F50D109E0B3F1A8
:100FD000405F3AD0B3F1605F37D0B3F1205F30D0DB
:100FE00045E00A464FF00061224B984714F0010F8C
:100FF00014BF6E662E6601203AE00A464FF080511B
:101000001C4B984714F0010F14BF6E662E6601202A
:101010002EE00A464FF0C051164B984714F0010FCE
:1010200014BF6E662E66012022E00A464FF0005182
:10103000104B984714F0010F14BF6E662E66012006
:1010400016E00D4B9847012012E004F0605204F0C6
:1010500001030093C4F38003B2F1605F14BF002268
:10106000012231462846054CA047012000E000201F
:1010700002B070BD3D0D4000CD0D4000010E40009E
:101080002DE9F84381468846124B98470546484665
:10109000114B9847054013D0104C04F160062368AB
:1010A000434508D16168294205D0E3684046984726
:1010B000636825EA0305B44202D01034002DEED156
:1010C000074B1B6823B1074B1B680BB14846984779
:1010D000BDE8F8835D0E4000610E4000940C0020D6
:1010E000480D0020900C0020F8B5174C2668062EFD
:1010F00028D84FF0000C6446144FA64625017D59B0
:101100008D4204D107EB04156D68954204D001347B
:10111000E4B2A446A642F0D20C4D4FEA0E1E05EBF7
:101120000E0445F80E106260A3600699E160013676
:10113000664504BF04490E6011461A46044B9847A1
:101140000020F8BD0120F8BD8C0C0020940C00207C
:10115000290E400008B50B210148024B984708BDF5
:10116000000E0E408110400008B50C210148024BD2
:10117000984708BD00100E408110400008B50D21B1
:101180000148024B984708BD00120E4081104000F4
:10119000184A136B23F0700318431063936E13F017
:1011A000080F03D009E0013B03D11EE04FF40063B8
:1011B00010498A6E12F0080FF5D00E4A136B23F017
:1011C000030343F002031363906E10F0080004D091
:1011D00000207047013B03D109E04FF4006305494B
:1011E0008A6E12F0080FF5D0704701207047012079
:1011F000704700BF00040E4038B111490B6A114A14
:101200001A40114B13430B6270470D48026A0902E2
:1012100089B222F45C1323F0030343F45C1343F01C
:1012200001030B4303620246936E13F0010FFBD0E0
:10123000034A136A43F09B7343F48033136270478D
:1012400000040E40FCFFC8FE02003701024B986EFE
:1012500000F48030704700BF00040E404FF0005291
:10126000014B9A62704700BF00040E40024B986E1B
:1012700000F00200704700BF00040E4022281ED874
:101280001F280CD8114B9A6901238340934318D02F
:10129000012303FA00F00D4B18610020704720383D
:1012A0000A4BD3F808210123834093430BD0012339
:1012B00003FA00F0054BC3F800010020704701203D
:1012C0007047002070470020704700BF00040E40A8
:1012D000FEE700BF08B5204B204A9A4212D9204BA6
:1012E0001D4A9A421ED21146013B9B1A23F003036A
:1012F00004331A4A134452F8040B41F8040B9A427F
:10130000F9D10FE0144B154A9A420BD2144B124AF2
:101310009A1A144811182AB151F8042943F8042DD7
:101320008142F9D100BF104B104A9A420BD2131DD3
:101330000F4AD21A22F003021A44043B002143F858
:10134000041B9A42FBD10B4B0B4A9A600B4B9847FC
:101350000B4B9847FEE700BF00000020508840007C
:10136000AC0800204C884000600D0020AC08002034
:10137000630D002000ED00E000004000B9184000BF
:10138000D11740003D4B1B6B03F00303032B5DD8CB
:10139000DFE803F0020E2B2B394B5B6913F0800F53
:1013A00014BF4FF400424FF4FA42364B1A604DE03E
:1013B000324B1B6A13F0807F03D0334A314B1A60E3
:1013C00044E0324A2F4B1A602C4B1B6A03F0700327
:1013D000102B02D0202B04D038E02D4A294B1A6064
:1013E00034E0294A274B1A6030E0244B1B6A13F083
:1013F000807F03D0244A234B1A6012E0234A214BFA
:101400001A601E4B1B6A03F07003102B02D0202BB6
:1014100004D006E01E4A1B4B1A6002E01A4A194B20
:101420001A60164B1B6B03F00303022B134A07BF12
:10143000936A926AD36AD26A1248C3F30A41036874
:1014400001FB0333D2B2B3FBF2F303600B4B1B6B14
:1014500003F07003702B07D10A4A13680D49A1FBF2
:1014600003135B0813607047044B1B6B0549C3F300
:1014700002120B68D3400B60704700BF00040E409F
:1014800010140E4008000020001BB70000093D00AA
:1014900000127A00ABAAAAAA1A4B984207D84FF0BA
:1014A0008063194A136002F5007213607047174B8E
:1014B000984206D8164B144A136002F50072136066
:1014C0007047144B984206D8134B0F4A136002F52D
:1014D000007213607047114B984206D8104B0A4AAD
:1014E000136002F50072136070470E4B984294BF70
:1014F0004FF004230C4B044A136002F50072136092
:10150000704700BFFF2C3101000A0E40FF596202F4
:1015100000010004FF86930300020004FFB3C4042B
:1015200000030004FFE0F50500050004094B1B68FB
:1015300013B9094A074B1A60064B1B681A1807496A
:10154000914204DB1046034A1060184670474FF082
:10155000FF307047040D0020603D0020FC7F02201A
:101560004FF0FF30704700BF4FF400534B60002036
:10157000704700BF012070470020704708B502483F
:10158000024B984708BD00BF008003404D0A400051
:1015900008B500210348044B98470448044B98477A
:1015A00008BD00BF00000140AD0A400000800340BC
:1015B0004D0A400030B585B01048114B984710F0E7
:1015C000807F18D00D480F4B984782B20E4901A872
:1015D0000E4B98476FF07F400D4CA047C823F02278
:1015E000AF2187200B4DA8470020A04701AAB421B6
:1015F0008C20094B984705B030BD00BF00800340E8
:10160000690A4000610A40003C864000CD19400054
:10161000390440007D084000410940002DE9F041B7
:101620000A201E4B98471E4C4FF0023201212046E3
:101630001C4B98471C4A012120461C4B98471C4ACA
:10164000012120461B4B98470322012120461A4BBB
:1016500098471A4DF0262E604FF4A0776F60002453
:10166000AC606FF07F48C5F80C80154B9847284652
:10167000144B98470820144B98474046134B984703
:101680003B46324621462046114DA847114B98470C
:1016900021462046104B9847BDE8F0817D1240005E
:1016A00000000E40E501400004040A0AED0140007C
:1016B0000A001600F5014000FD0140004C0D00201D
:1016C000C10140001D054000650140003904400093
:1016D0007D08400005044000F904400030B583B0A7
:1016E0000C20114B9847114C792208212046104BB1
:1016F00098470A22082120460E4B98470E4B00932C
:10170000792308220C2120460C4DA84708212046A9
:101710000B4B98470B4B502283F80C234FF480520D
:101720001A6003B030BD00BF7D12400000100E40B3
:10173000CD0D4000210D40007D154000E910400016
:10174000590E400000E100E038B51D20144B9847C9
:10175000144C4FF48023144A14492046144DA847D2
:1017600001234FF4401219462046124DA84700228B
:1017700011462046104B9847052120460F4B9847AD
:1017800020460F4B98474FF000520E4B1A602046F0
:101790000D4B98474FF0807120460C4B984738BD51
:1017A0007D1240000080034000A86100000E270762
:1017B000ED094000310A4000210A4000550A40006E
:1017C0006D0A400000E100E04D0A4000650A40005B
:1017D00000B585B0244B9847244B9847244B984735
:1017E000244B98471720244B9847244C009403AB74
:1017F00002AA21460120224DA847224D039A42F415
:10180000804200212846204B984721461F48204E01
:10181000B047029BB4FBF3F421461E48B047224672
:10182000002128461C4B98471C4B4FF40002C3F87C
:101830008020C3F88021202183F817131A6010221A
:1018400000212846164B984700212846154B9847FB
:10185000154B98470020154B9847154A14210A202C
:10186000144B9847FEE700BF790B4000DD0B4000AA
:101870001D164000DD1640007D124000000E2707B7
:10188000B50A4000000001407D0A4000408640004B
:1018900009194000608640009D0A400000E100E018
:1018A000A50A4000950A400049174000390440004D
:1018B000708640004109400070B50F4E0F4D761BF9
:1018C000B61018BF002405D0013455F8043B9847E2
:1018D000A642F9D10A4E0B4D761B06F0A3FFB610B7
:1018E00018BF002406D0013455F8043B9847A6429F
:1018F000F9D170BD70BD00BF308840003088400015
:1019000038884000308840000FB400B5074983B0E4
:1019100004AB086853F8042B8168019301F088FC3C
:1019200003B05DF804EB04B0704700BF380400203A
:1019300070B4840746D0541E002A41D0CDB203466D
:1019400002E0621EE4B3144603F8015B9A07F8D183
:10195000032C2ED9CDB245EA05250F2C45EA0545C5
:1019600019D903F110022646103E0F2E42F8105CE2
:1019700042F80C5C42F8085C42F8045C02F1100288
:10198000F2D8A4F1100222F00F0204F00F0410327A
:10199000032C13440DD91E462246043A032A46F866
:1019A000045BFAD8221F22F003020432134404F02D
:1019B00003042CB1C9B21C4403F8011BA342FBD1A0
:1019C00070BC704714460346C2E700BF0EB4F0B5C2
:1019D0009CB021AB0F4953F8042B019305466FF0DF
:1019E0000044086802954FF402774FF6FF7602A98B
:1019F0000695ADF8147004940794ADF8166000F0E5
:101A00008DF8029B00221A701CB0BDE8F04003B0B4
:101A1000704700BF380400200000000000000000F4
:101A200000000000000000000000000000000000B6
:101A300000000000000000000000000000000000A6
:101A400090F800F06DE9024520F007016FF0000CFE
:101A500010F0070491F820F040F049804FF00004A6
:101A60006FF00700D1E9002391F840F000F1080081
:101A700082FA4CF2A4FA8CF283FA4CF3A2FA8CF3B9
:101A80004BBBD1E9022382FA4CF200F10800A4FA20
:101A90008CF283FA4CF3A2FA8CF3E3B9D1E9042374
:101AA00082FA4CF200F10800A4FA8CF283FA4CF3AB
:101AB000A2FA8CF37BB9D1E9062301F1200182FA65
:101AC0004CF200F10800A4FA8CF283FA4CF3A2FA6B
:101AD0008CF3002BC6D0002A04BF04301A4612BA79
:101AE000B2FA82F2FDE8024500EBD2007047D1E97C
:101AF000002304F00305C4F100004FEAC50514F00B
:101B0000040F91F840F00CFA05F562EA05021CBFDB
:101B100063EA050362464FF00004A9E72DE9F04FA0
:101B2000C1B00C46099115460E930A9003F088FF48
:101B3000036817931846FFF783FFA38916901E06C4
:101B400003D52369002B01F0198100231A46129353
:101B50002593249319930B93DFF864A4149230AB6C
:101B6000239399461592A84698F800304446EBB165
:101B7000252B02D11AE0252B03D014F8013F002BAE
:101B8000F9D1C8EB04058DB1249B259AC9F80080D2
:101B900001332A44072BC9F804502592249300F3FB
:101BA000A68009F108090B9B2B440B932378002B8B
:101BB00000F0A68000231A468DF86F3019460C936A
:101BC00007934FF0FF3B637804F101085D4608F18D
:101BD0000108A3F12000582800F22584DFE810F066
:101BE00088032304230490032304230423042304ED
:101BF000230423049703A50323045D00E2002304C8
:101C0000FE000501050105010501050105010501AC
:101C100005010501230423042304230423042304CE
:101C200023042304230423041501810223048102D5
:101C30002304230423042304C60223042304CD0223
:101C400023042304230423042304F702230423048A
:101C5000250323042304230423042304230423044B
:101C60002304230423046603790381028102810291
:101C70008103790323042304D1032304DB03A3009A
:101C80006400EE032304F5032304AA0323042304BE
:101C9000BC030C980E9340420C90079B43F0040346
:101CA000079398F8003092E70E98AB46002104683D
:101CB0008DF86F10071D0798302378228B458DF81B
:101CC00070304FF000058DF8712040F00203C0F233
:101CD000C78320F0800343F00203079354EA05030F
:101CE0000E9700F093830F461192B348CEE223AAD9
:101CF00009990A9805F07AF848B90DF1C00952E738
:101D0000259B23B10A98099923AA05F06FF8099B2E
:101D10009B8913F0400F0B9B18BF4FF0FF33184601
:101D200041B0BDE8F08F1193AB46002A41F0238209
:101D3000079A12F0200300F02E820E9F073727F03B
:101D40000703002703F10801BB450E91D3E90045C5
:101D50008DF86F70C0F2528722F08003079354EA27
:101D6000050300F0758330AEE20842EA4572E908E7
:101D700004F007030D461446303354EA050206F812
:101D8000013DF1D1079AD10740F18480302B00F05A
:101D900081803022731E06F8012C30AAD21A0D92CF
:101DA0001E467AE098F800302A2B08F1010401F071
:101DB000B181A3F13000092898BF002501F26481A8
:101DC00014F8013B05EB850500EB4505A3F1300058
:101DD0000928F5D945EAE575A046FAE6079B43F0E0
:101DE0008003079398F80030F1E6A3F13000002358
:101DF0001C4618F8013B04EB840400EB4404A3F1F7
:101E000030000928F5D90C94E3E61193AB46002A7B
:101E100041F0C981079B43F010030793079B980685
:101E200040F130850E9F073727F00707D7E90023D9
:101E300007F108010E9114461D46002A73F10003B4
:101E4000C0F25B85BBF1000F9DF86F70C0F2388562
:101E5000079B23F08003079354EA050300F0DB811E
:101E6000002D08BF0A2CC0F0DB8130AE2046294689
:101E70000A22002305F096FE303206F8012D204696
:101E8000294600230A2205F08DFE04460D4654EA39
:101E90000503EBD130AB9B1B0D930D9B5B45B8BF8E
:101EA0005B4608930023139317B1089B01330893F3
:101EB000079B13F002030F9302D0089B0233089391
:101EC000079B13F08403109340F0D7820C9B089A71
:101ED0009D1A002D40F3D182102D2599249A374F59
:101EE00027DD189648461024B946099E2F460A9DBC
:101EF00004E0103F102F00F1080016DD01322F4BD7
:101F000024921031072A259180E81800F1DD23AAD8
:101F10003146284604F06AFF00287FF4F8AE103FEF
:101F2000102F2599249A30A8E8DC189E3D464F468C
:101F3000814601326C18072A25942492C9F8007052
:101F4000C9F8045000F328849DF86F7009F108095E
:101F500077B1249B013301340DF16F010122072B6E
:101F60002594249389E8060000F3A08309F1080969
:101F70000F9B6BB1249B013302341CA90222072B57
:101F80002594249389E8060000F39C8309F108094D
:101F9000109B802B00F0D5820D9BC3EB0B07002F0D
:101FA00039DD074A249B0F92102F28DD22464FF07F
:101FB000100B0A9D099C0AE0B8864000D8864000B4
:101FC00084864000103F102F09F1080916DD013307
:101FD0001032072B2592249389E8000CF2DD23AA06
:101FE0002146284604F002FF00287FF490AE103FFF
:101FF000102F259A249B0DF1C009E8DC144601330B
:102000000F9A24933C44072B259489E8840000F31D
:10201000418309F10809079BDA0500F13082249B0E
:102020000D99C9F8006001330C44072B2594C9F8B9
:102030000410249300F3188309F10809079B59073A
:102040003FD50C9B089A9D1A002D3ADD102D249B3C
:10205000BC4F23DD22461026DDF828B0099C04E0A1
:10206000103D102D09F1080917DD0133B5492493FE
:102070001032072B259289E84200F1DD23AA214680
:10208000584604F0B3FE00287FF441AE103D102DF9
:10209000259A249B0DF1C009E7DC144601332C443A
:1020A000072B25942493C9F80070C9F8045008DD63
:1020B00023AA09990A9804F099FE00287FF427AE14
:1020C000259C0B9B0C9A08998A42ACBF9B185B1805
:1020D0000B93002C40F0D482002324930DF1C0090F
:1020E00042E51193AB46002A41F059800E9F073715
:1020F00027F0070303F108020E921A6814925B6836
:102100001593159B149D23F00044284621464FF05B
:10211000FF328D4B05F008FD002840F0C1842846B1
:1021200021464FF0FF32884B05F0E0FC002840F0DC
:10213000B784149815990022002305F0CDFC0028DF
:1021400040F04B879DF86F70804E814B079921F0CE
:1021500080010791119903224FF0000B0892472943
:10216000D8BF1E460D92CDF84CB09DE6079B43F0BC
:102170000803079398F8003029E51193AB46002A2D
:1021800041F00980079B43F010030793079A12F070
:1021900020037FF4D2AD079911F0100200F00785FB
:1021A0000E988DF86F30BBF1000F046800F1040742
:1021B0004FF00005C0F221850A4622F08002079206
:1021C00054EA05020E9700F043811F46CBE51193B8
:1021D000AB46002A40F0D787079B43F010030793D4
:1021E000079A12F0200300F032830E9F073727F082
:1021F0000703002703F10801BB450E91D3E9004511
:102200008DF86F70C0F25C8322F08003079354EA6C
:1022100005037FF425AEBBF1000F00F0FE80002423
:1022200040AE303406F8414D34E61193AB46002AF7
:1022300040F0A587079B47489D0640F197800E9F79
:10224000073727F00703D3E9004503F108020E9290
:10225000079A12F0010700F0418254EA050300F0EA
:10226000F5849DF844208DF871200027079A8DF899
:102270006F703023BB458DF8703042F00203C0F21E
:10228000A98622F0800343F00203079330AE2309AE
:1022900004F00F0143EA05732A091C461546435C06
:1022A00006F8013D54EA0503F1D1F3E50E991193C7
:1022B0000A688DF8982000230A461F468DF86F3073
:1022C000043201230893BB4613970E920D9326AE5A
:1022D000EEE51193AB46002A3FF4A0AD8DF86F10E8
:1022E0009CE5079B43F04003079398F800306EE4A9
:1022F00098F8003000297FF46AAC0122202166E4BE
:10230000079B43F00103079398F800305FE40E9CAD
:1023100023680C9318460028234603F10403FFF6B4
:10232000B8AC0E9398F8003051E498F800300122D0
:102330002B214CE41193AB46002A3FF451AF8DF8AA
:102340006F104DE7D8864000FFFFEF7F9886400072
:1023500094864000A48640001193AB46002A40F0CA
:102360000387079B99489D063FF569AF079BDC06ED
:1023700040F15E840E9A1346043314680E930025D0
:1023800066E798F800306C2B00F0E184079840F085
:10239000100007901BE4002A40F0DB86079B9B0699
:1023A00040F12F840E9A0B991368CD17084604321A
:1023B00029460E92C3E90001FFF7D6BB079B43F005
:1023C0002003079398F8003001E40E9A11931668E1
:1023D00000248DF86F40171D002E00F0BD85002DE4
:1023E000C0F20F852A462146304603F059FE0028E8
:1023F00000F00486831B0D93A34623EAE3730E9734
:102400000893CDF84CB09DF86F704DE56F48119270
:10241000BBF1000F40F073815F464FF0000BCDF829
:1024200034B030AE39E51193002A40F0B086119AED
:10243000002A3FF465AC002301211F4608918DF866
:1024400098208DF86F309B4613930D9126AE2FE5A3
:10245000BBF1000F00F0DD8500270024002582E499
:102460005A480793119254EA05030E974FF000075C
:102470007FF40CAF0024002508E7259C68E5119B3C
:10248000652B40F3A980149815990022002305F0CC
:1024900019FB002800F03581249B4D4AC9F8002023
:1024A000013301340122072B25942493C9F8042019
:1024B00000F3E68309F108091D9B129A934203DB9E
:1024C000079BDB077FF5BAAD249B1699179AC9F8CD
:1024D000002001330C44072B2594C9F804102493E1
:1024E00000F33F8409F10809129B5D1E002D7FF760
:1024F000A5AD384A249B0F92102D40F3E68110269B
:102500000A9FDDF824B005E009F10809103D102DFF
:1025100040F3DB8101331034072B25942493C9F851
:1025200000A0C9F80460EFDD23AA5946384604F03C
:102530005DFC00287FF4EBAB259C249B0DF1C009CA
:10254000E4E70C9B089A9F1A002F7FF725AD214ADC
:10255000249B0F92102F2BDD4A462146B9461025A9
:1025600037460A9C099E06E0A9F11009B9F1100F3F
:1025700002F1080218DD01331031072B2591249355
:10258000C2F800A05560EFDD23AA3146204604F0D2
:102590002DFC00287FF4BBABA9F11009B9F1100F95
:1025A0002599249B30AAE6DC3E460C464F469146D0
:1025B00001330F9A24933C44072B259489E8840027
:1025C00000F3458209F10809E6E400BFB88640003F
:1025D000D486400084864000129B249D012B40F34A
:1025E0000882013501340123072D25942495C9F86B
:1025F0000060C9F8043000F30D8209F10809169A49
:10260000179BC9F8003001351444072D25942495F3
:10261000C9F8042000F30E8209F108090023149878
:102620001599002205F04EFA129B002840F0C38055
:10263000013B013501361C44072D24952594C9F82A
:102640000060C9F8043000F3F58009F10809199A0F
:10265000C9F80420013514441FAB072D2594249597
:10266000C9F800307FF7E8AC23AA09990A9804F06A
:10267000BDFB00287FF44BAB259C0DF1C009DDE4C8
:1026800023AA09990A9804F0B1FB00283FF424AD6D
:10269000FFF73DBB23AA09990A9804F0A7FB00287D
:1026A0007FF435AB259C0DF1C009B4E423AA099948
:1026B0000A9804F09BFB00287FF429AB259C0DF1C0
:1026C000C00955E423AA09990A9804F08FFB002851
:1026D0007FF41DAB259C0DF1C00959E4BBF1000F3F
:1026E0008DF86F70C0F2D88222F08003079354EA0D
:1026F00005037FF4CBADBBF1000F3FF48DAE002797
:10270000B8E61D9D002D40F3CA82139B129A934296
:10271000A8BF1346002B1D460DDD249BC9F80060A1
:1027200001332C44072B2594C9F80450249300F35B
:102730009C8309F10809139B002DA8BF5B1B002B8C
:102740001D4640F3F680BA4A249B0F92102D40F3A9
:102750008A8222461027DDF828B0099C05E009F19D
:102760000809103D102D40F37D8201331032072BF4
:1027700025922493C9F800A0C9F80470EFDD23AABC
:102780002146584604F032FB00287FF4C0AA259A5F
:10279000249B0DF1C009E4E723AA09990A9804F0E3
:1027A00025FB00287FF4B3AA9DF86F70259C0DF1DE
:1027B000C009FFF7CDBB5E1E002E7FF748AF9C4BD4
:1027C0000F93102E2CDDCDF834801027B046DDF8A5
:1027D00028B0099E06E0A8F11008B8F1100F09F121
:1027E00008091ADD01351034072D25942495C9F800
:1027F00000A0C9F80470EEDD23AA3146584604F063
:10280000F5FA00287FF483AAA8F11008B8F1100F98
:10281000259C249D0DF1C009E4DC4646DDF834809A
:102820000F9B01353444072D2594249589E84800F1
:102830007FF70BAF23AA09990A9804F0D7FA00286A
:102840007FF465AA259C249D0DF1C009FFE6079938
:1028500011F0100200F008810E988DF86F30BBF176
:10286000000F046800F104074FF0000526DB0A465C
:1028700022F08002079254EA05020E971F467FF469
:10288000EFAAC8E4079BD9062AD4079B5A0627D586
:102890000E99B1F900400431E51722462B460E91FE
:1028A000FFF7CBBA0E998DF86F30BBF1000F0C68B3
:1028B00001F104074FF0000580F247820E971F4692
:1028C00054EA05037FF4CCAAAAE401330F9A2493B7
:1028D0002C44072B259489E824007FF7ADABC3E691
:1028E0000E9A146813460433E51722460E93002A05
:1028F0002B4673F10003BFF6A5AA64424FF02D07E3
:1029000065EB4505BBF1000F8DF86F70FFF6A8AAC7
:10291000079B23F080030793FFF7A2BA23AA099924
:102920000A9804F063FA00287FF4F1A9259C0DF1C0
:10293000C009139A1D9B32441746129A934247DBF3
:10294000079AD50744D412990E44F51BCB1A9D4221
:10295000A8BF1D46002D2E460DDD249AC9F8007033
:1029600001322C44072A2594C9F80450249200F31C
:102970000B8309F10809002EACBF9D1B1D46002DDD
:102980007FF75CAB2A4A249B0F92102D9DDD102609
:102990000A9FDDF824B004E009F10809103D102D6C
:1029A00093DD01331034072B25942493C9F800A03C
:1029B000C9F80460F0DD23AA5946384604F016FA37
:1029C00000287FF4A4A9259C249B0DF1C009E5E70C
:1029D000249A16981799C9F8001001320444072A5E
:1029E0002594C9F80400249200F3A98209F108098A
:1029F000A9E7079BD8073FF5F4AD01350134012362
:102A0000072D25942495C9F80060C9F804307FF794
:102A10001CAE0FE723AA09990A9804F0E7F90028E9
:102A20007FF475A9259C249D0DF1C009E7E500BF41
:102A30008486400023AA09990A9804F0D7F900284F
:102A40007FF465A9259C249D0DF1C009E6E523AA24
:102A500009990A9804F0CAF900287FF458A9259C1E
:102A60000DF1C009FFF798BA079911F040033FF440
:102A700019AF0E988DF86F20BBF1000F048800F19C
:102A800004074FF00005C0F2B98121F080030793DD
:102A900054EA05030E9717467FF4E2A9FFF7BBBB84
:102AA000149C22462046159C2346214605F03CF8FE
:102AB000002840F01783119BBBF1FF3F23F0200358
:102AC0000D9300F07082472B00F09281079B43F436
:102AD00080731093159B1F1E149B0893BBBF3B462E
:102AE00003F1004700232D230F93119B662B00F069
:102AF0005D82462B00F051810D9B089A452B21A841
:102B00001EA90CBF0BF101055D46049003911DA8A1
:102B100002213B460290019500910A9801F0C4FB06
:102B2000119B672B064640F09082079BDA0740F125
:102B3000AF827419089839460022002304F0C2FFBE
:102B4000002840F09081219B9C4206D930215A1CDC
:102B500021921970219B9C42F9D89B1B12930D9BCB
:102B6000472B00F07981119B652B40F37D82119BEF
:102B7000662B1D9B139300F05B82139A12998A4275
:102B8000C0F23082079BD90700F1848222EAE27307
:102B90000D92672211920F9A002A40F053810893F8
:102BA000109B079393469DF86F70FFF77DB90799C7
:102BB00011F0400315D00E988DF86F20BBF1000F77
:102BC000048800F104074FF0000516DB21F08003B4
:102BD000079354EA05030E973FF43AAC1746FFF704
:102BE000C2B80E998DF86F30BBF1000F0C6801F17F
:102BF00004074FF0000580F2A5800E970027FFF72D
:102C0000B2B8079BDF060BD4079B5E0608D50E9A69
:102C1000136804320E92BDF82C201A80FEF7A4BF70
:102C20000E9A136804320E920B9A1A60FEF79CBF3C
:102C30000E9A079B13F0400F134603F104030CBFD9
:102C4000146814880E930025FFF702BB0027BB45CC
:102C50008DF86F70FFF60EAC079B23F0800307938F
:102C6000FFF7D6BB144601330F9A24932C44072B4D
:102C7000259489E824003FF751AE09F1080958E688
:102C800023AA09990A9804F0B1F800287FF43FA814
:102C9000259C0DF1C0090FE40E9FFFF7E4BB249BB8
:102CA000B54AC9F80020013301340122072B2594CD
:102CB0002493C9F8042000F38E8009F108092DB986
:102CC000129B1BB9079BDF077FF5B8A9249B1699B8
:102CD000179AC9F8002001330C44072B2594C9F832
:102CE0000410249300F3C28109F108096D42002DFC
:102CF00040F39B80A14A0F92102D40F3C3802246DF
:102D00001027DDF828B0099C05E009F10809103DFD
:102D1000102D40F3B68001331032072B25922493F7
:102D2000C9F800A0C9F80470EFDD23AA214658466F
:102D300004F05CF800287EF4EAAF259A249B0DF19C
:102D4000C009E4E7079AFFF738BA079A90E5079BAE
:102D500043F02003079308F1010898F80030FEF7CC
:102D600036BF23AA09990A9804F040F800287EF497
:102D7000CEAF259C0DF1C009FFF7B6BB40210A98E4
:102D800002F0D6FE099A10601061002800F0E5817B
:102D9000099A40235361FEF7D8BE21A81EA90490CA
:102DA00003911DA803210290089ACDF804B03B4678
:102DB00000910A9801F078FA5D460646119B462B71
:102DC00006EB05047FF4B6AE3378302B00F07C813F
:102DD0001D9D2C44AEE623AA09990A9804F006F832
:102DE00000287EF494AF1D9D259C0DF1C00966E777
:102DF000BBF1000F08BF4FF0010B67E60E971746B7
:102E00005EE53046FEF71CFEA34603460D90FFF735
:102E1000F4BA23AA09990A9803F0E8FF00287EF47F
:102E200076AF259C249B0DF1C0091299C9F800606A
:102E300001330C44072B25942493C9F804107FF721
:102E4000FBA811E42D270893109B07938DF86F7052
:102E50004FF0000BFFF729B81D9BDD1C1EDB9B45C7
:102E60001CDB139389E6234677E623AA09990A987F
:102E700003F0BCFF00287EF44AAF259C0DF1C00989
:102E800059E4144601330F9A24932C44072B2594BC
:102E900089E82400BDDC09F10809C6E7119A023A65
:102EA0001192013B002B9DF844201D93B8BF5B425B
:102EB0008DF87C20B4BF2D222B22092B8DF87D208C
:102EC00040F3F1800DF18B0004462D4A82FB032173
:102ED000DA17C2EBA10202EB8201A3EB410303F17B
:102EE0003001092A134604F8011DEEDC2146303377
:102EF000DAB201F8012D884240F23A810DF17E01EB
:102F0000234601E013F8012B01F8012B9842F9D177
:102F1000431C1B1B0DF17E0213441FAA9B1A129A1D
:102F20001993012A13440D9340F3EA800D9B169ADE
:102F3000134400220D93139223EAE3732BE623AA92
:102F400009990A9803F052FF00287EF4E0AE1D9B19
:102F5000259C0DF1C009F6E4062D2B4628BF06235B
:102F60000D9323EAE373B3460E97139637460893FF
:102F7000044EFEF799BF00BFD4864000848640000F
:102F800067666666CC86400023AA09990A9803F012
:102F90002DFF00287EF4BBAE1D9B129A259CD31AF0
:102FA0000DF1C009E7E44FF0060B8FE521A81EA93B
:102FB000049003911DA803210290089ACDF804B053
:102FC0003B4600910A9801F06FF95D46064600EB1A
:102FD0000B04F9E60793FFF759B92D278DF86F70A9
:102FE000FFF7B2B8169A129B1344139A0D93002A56
:102FF0007EDD672223EAE3731192CCE525EAE573CF
:103000000E9708930D95834613909DF86F70FEF709
:103010004BBF079BDB075F4605D540AE302306F864
:10302000413DFEF737BFCDF834B030AEFEF735BFC7
:10303000002B7DDDBBF1000F3DD1079AD4073AD4B8
:103040001A460D9223EAE373A5E5119B472B7FF403
:1030500070AD079BDB073FF5B1AE219B9B1B129325
:103060000D9B472B3FF4F8AE1D9B1AE723AA099945
:103070000A9803F0BBFE00287EF449AE1D9D259CF6
:10308000249B0DF1C00931E6A0460025FEF7A1BD45
:10309000219B62E5169A139B134467220D931192AC
:1030A00023EAE37377E5303330228DF87F308DF8F3
:1030B0007E2020AB31E7139B169A9D1805EB0B037E
:1030C0000D9323EAE37366E508983946002200234E
:1030D00004F0F8FC00287FF47BAEC5F101051D95D6
:1030E0002C4427E5324E334B9DF86F70FFF72EB816
:1030F000139B0D9AC3F101031A4413460D9278E70E
:10310000079B13F001037FF411AF13930D9B23EA88
:10311000E37340E50E9898F8013005680430002DFF
:103120000E90A046BEF653AD4FF0FF35FEF74FBDF3
:10313000BBF1000F02D1079BD80707D5169B5D1C7A
:1031400005EB0B030D9323EAE37324E501230D93B1
:1031500021E58DF86F10FFF721B90A9A0C2313604F
:103160004FF0FF30FEF7DCBD8DF86F10FFF7F9B8B8
:103170000DF17E03D1E68DF86F10FEF7D9BD8DF805
:103180006F10FFF757B88DF86F10FFF725B88DF85F
:103190006F10FFF74CB98DF86F10FEF7F3BF8DF885
:1031A0006F10FEF7A3BF8DF86F10FEF733BE00BFA0
:1031B000A08640009C8640004B6E2DE9F0479C04A1
:1031C00092462CD5936812683BB30F46804602F1B5
:1031D000080919E96000B60817D0043D002401E091
:1031E000A64210D03A4655F8041F404602F02AF98C
:1031F000431C04F10104F3D10023CAF80830CAF8D3
:103200000430BDE8F087DAF80830A3EB8603CAF88B
:10321000083009F10809002BDBD10020ECE702F0AF
:1032200059FA0023CAF80830CAF80430BDE8F0871C
:103230002DE9F04FABB01C460091904604930590E9
:1032400018B1836B002B00F0DE800098B0F90C10F1
:103250008AB2950407D4436E41F4005223F400531C
:103260008281436692B2110740F1B180009B1B69D5
:10327000002B00F0AC8002F01A020A2A00F0B580A0
:1032800000230DF1680B02930F930E93CDF834B029
:10329000DA4698F800304446FBB1252B02D11CE0F9
:1032A000252B03D014F8013F002BF9D1C8EB0405FE
:1032B0009DB10E9B0F9ACAF8008001332A44072B58
:1032C000CAF804500F920E937BDD002A40F0288547
:1032D000029B0E922B44DA4602932378002B00F0D7
:1032E0003E8400214FF000034FF0FF328DF82F3065
:1032F00004F101086378019208460E460C4608F175
:103300000108A3F12002582A00F29383DFE812F0AB
:103310004603910391034E0391039103910391039B
:103320009103910389026702910380006C0291036B
:10333000C601590259025902590259025902590249
:10334000590259029103910391039103910391034F
:103350009103910391039103CB0191039103910395
:10336000910391039103910391039103910314023B
:1033700091039103910391039103EE029103910351
:10338000110391039103910391039103910391031D
:1033900091039103910334038A03910391039103F1
:1033A00067038A03910391036C03910379039502E8
:1033B0008500E90291039B029103BA0291039103F4
:1033C00053030AF1080A029B2B44029385E70099F4
:1033D000059800F061FE002840F05885009B9A890E
:1033E00002F01A020A2A7FF44BAF0099B1F90E30AD
:1033F000002BFFF645AF23464246059800F016FE27
:103400002BB0BDE8F08F01F0B3FF1EE764420493D8
:1034100046F0040698F8003071E7302104988DF8E2
:103420003010019906944FF0000378228DF82F3068
:10343000002903468DF83120046803F104034FF09E
:10344000000546F00202C0F2258526F0800654EA07
:10345000050246F00206049340F0BF84B348019B86
:10346000002B40F01C8499460023019303935F4690
:10347000019B039A9342B8BF13461D46B9F1000F52
:1034800000D0013516F00203079318BF023516F07D
:103490008403089340F0F182069B5C1B002C40F3F0
:1034A000EC82102C40F35685DFF88492DDF838E08A
:1034B0000F9AD4461023C2467046A8464D46DDF802
:1034C000149007E000F1020E0CF1080C0846103CC5
:1034D000102C13DD411C103207290F92CCF800503C
:1034E000CCF804300E91EDDD002A40F0B782103C9C
:1034F000102C10464FF0010EDC46EBDCA94670465E
:103500004546D046E246224407280F92CAF800906A
:10351000CAF804400E9000F375839DF82F300AF12D
:10352000080A00F1010E002B40F0B082079B002B2F
:1035300000F0C38202320CA90223BEF1070F0F92E2
:10354000CDF838E08AE80A0040F37883002A40F09A
:103550000A84089B802B4FF0010E1046DA4640F09B
:10356000B082069B5C1B002C40F3AB82102CDFF872
:10357000C49140F30B85D6461023C246A8464D465B
:10358000DDF8149007E000F1020C0EF1080E084679
:10359000103C102C13DD411C103207290F92CEF87D
:1035A0000050CEF804300E91EDDD002A40F0158376
:1035B000103C102C4FF0010C1046DE46EBDCA94607
:1035C0004546D046F2462244BCF1070F0F92CAF896
:1035D0000090CAF80440CDF838C000F3D283019BB4
:1035E00003995C1A002C0AF1080A0CF1010E6046DE
:1035F00000F36D820399CAF800700A44BEF1070F08
:103600000F92CAF80410CDF838E040F3CE82002AB9
:1036100040F03A8370070E9238D5069B5C1B002C55
:1036200034DDDA46102C40F3AB84DFF804910E99B8
:103630004F461026DDF8149006E0881C0AF1080AAF
:103640001946103C102C13DD4B1C1032072B0F9227
:10365000CAF80070CAF804600E93EEDD002A40F04C
:103660008E82103C102C4FF001001146DA46EBDC44
:10367000B946224407280F92CAF80090CAF80440BD
:103680000E9040F39B82002A40F02584029B069A0C
:10369000AA42ACBF9B185B19029399E246F08006E0
:1036A00098F800302BE60694002940F0AF8446F0ED
:1036B0001006B30640F112830499073121F0070187
:1036C000D1E900230831049114461D46002A73F104
:1036D0000003C0F28683019B9DF82F90002BC0F25F
:1036E0001A8354EA050326F0800600F0ED80002DD1
:1036F00008BF0A2CC0F0ED805F46204629460A220A
:10370000002304F04FFA303207F8012D20462946F5
:1037100000230A2204F046FA04460D4654EA050343
:10372000EBD1C7EB0B030393A2E600BFB8864000C2
:10373000F8864000E88640000694002940F0628444
:1037400046F0100616F0200300F0AE82049B07330B
:1037500023F007034FF000028DF82F20D3E9004536
:1037600003F10802019B0492002BC0F2748154EA19
:10377000050326F0800640F06E81019B002B00F0CF
:1037800030844FF00009002400255F46E20842EA39
:103790004572E90804F007030D461446303354EA35
:1037A000050207F8013DF1D1F407BAD5302BB8D0A6
:1037B00030227B1E07F8012CC3EB0B0203921F463D
:1037C00056E6A3F13002002418F8013B04EB840410
:1037D00002EB4404A3F13002092AF5D991E598F8E7
:1037E000003001212B208AE598F800302A2B08F1BF
:1037F000010500F0DD83A3F13002092AA84698BF35
:10380000002500F2CE8318F8013B05EB850502EB9D
:103810004505A3F13002092AF5D945EAE57201927E
:103820006FE5049A14681346002C03F10403FFF6B5
:10383000EDAD049398F8003061E50694002981D03D
:103840008DF82F007EE7049A069417684FF0000366
:103850008DF82F30141D019B002F00F08683002B64
:10386000C0F25F831A460021384602F019FC002896
:1038700000F08F83C31B0393002304949DF82F90C3
:103880000193F5E50694002940F0B98316F020096C
:1038900035D116F0100303D116F0400940F02A8309
:1038A000049A13461468019A8DF82F90002A03F1A8
:1038B00004034FF00005C0F2328354EA050226F0FB
:1038C000800604937FF413AF019B002B3FF4CCAD33
:1038D00000242AAF303407F8414DC7EB0B030393A4
:1038E000C6E546F0200698F8003008E50694002961
:1038F00040F06E8346F0100616F02009C9D0049BF4
:10390000073323F007034FF000028DF82F20D3E98F
:10391000004503F10802019B0492002BC0F2F981DB
:1039200054EA050326F080064FF000097FF4DFAE6D
:10393000CAE70694002940F05183B206AE4841D54B
:10394000049A073222F00702D2E9004502F1080189
:10395000049116F0010900F0778154EA050240F065
:1039600026824FF000038DF82F30019B002BC0F210
:10397000968126F0800672E5049A069413688DF805
:10398000403013464FF00001012504338DF82F100D
:103990000493039510AF0023019373E598F800306A
:1039A00000287FF4ACAC01212020A8E446F00106F9
:1039B00098F80030A3E40694002940F00C83B20686
:1039C0008E48BDD40499F7060A4600F19D8175061C
:1039D00040F19A8104320C8804920025B9E746F040
:1039E000400698F800308AE498F800306C2B03BF4A
:1039F00098F8013046F0200608F1010846F010065C
:103A00007DE4002940F00983B40640F11C82049A49
:103A100002991368CD170846043229460492C3E977
:103A2000000136E4069400293FF443AE8DF82F00E0
:103A30003FE60694002940F0ED82002B00F08F80D5
:103A400001258DF840304FF000038DF82F3003959D
:103A500010AFA0E704934FF0000996E60DAA009975
:103A600009934846FFF7A8FB00287FD10E980F9ACC
:103A7000099B00F1010EDC4629E50E980F9A00F132
:103A8000010E9DF82F30002B3FF450AD01320DF1A7
:103A90002F010123BEF1070F0F92CDF838E08AE81D
:103AA0000A0040F3BF80002A40F04E8107990029A8
:103AB00040F0BE809E461046DA46089B802B3FF4BD
:103AC00050AD019B03995C1A002C7FF793AD102C2D
:103AD000DFF82C9125DDD4461023C246A8464D467A
:103AE000DDF8149007E000F1020E0CF1080C084616
:103AF000103C102C11DD411C103207290F92CCF81C
:103B00000050CCF804300E91EDDDD2B9103C102CF1
:103B10004FF0010E1046DC46EDDCA9464546D04686
:103B2000E2462244BEF1070F0F92CAF80090CAF88D
:103B30000440CDF838E02EDC0AF1080A0EF1010E3F
:103B400058E50DAA009901934846FFF735FB68B97F
:103B50000E980F9A019B00F1010EDC46C8E70F9BFF
:103B600023B1059800990DAAFFF726FB009B9B89BE
:103B70005A0600F18B8102982BB0BDE8F08F0DAA98
:103B800000994846FFF718FB0028EFD10E990F9ACD
:103B9000481CDA4655E5002A40F0FB80039A1B9248
:103BA00001230F921A970E93DA460AF1080A710759
:103BB00004D5069B5C1B002C3FF734AD029B069995
:103BC000A942ACBF5B185B190293002A40F0B38096
:103BD00000230E93DA46FFF75CBB0DAA009907930A
:103BE0004846FFF7E9FA0028C0D10E980F9A079BC4
:103BF00000F1010CDE46CBE4A4864000B88640000C
:103C0000E8864000002A40F033819DF82F30002BD9
:103C100000F0F58001230DF12F011A461B939E46FB
:103C20001A91DA4670460AF1080A0EF1010E7DE497
:103C30000CA902229E461A911B92DA4670460AF19E
:103C4000080A0EF1010E38E7019B8DF82F90002B2A
:103C5000C0F22A8154EA050326F080063FF4FFAB48
:103C60005F46230904F00F0143EA05732A091C4645
:103C70001546435C07F8013D54EA0503F1D1C7EB53
:103C80000B030393FFF7F4BB0DAA00990598FFF708
:103C900093FA00287FF46AAF0F9ADA4687E74FF06D
:103CA000000900240025DBE716F0100200F0B280C6
:103CB00004998DF82F300A460C680199002902F109
:103CC00004024FF00005C0F2598154EA050126F0C4
:103CD000800604923FF451AD994656E5F7060AD4A2
:103CE000750608D50499B1F900400431E51722465C
:103CF0002B460491EAE4049A146813460433E5174A
:103D0000049322462B46E1E4146804320492002511
:103D10001FE64FF0000954EA05037FF4E8ACD8E54C
:103D20000DAA00990598FFF747FA00287FF41EAF07
:103D3000DA46FFF748BB0DAA00990598FFF73CFA51
:103D400000283FF445AF11E70DAA00990598FFF749
:103D500033FA00287FF40AAF0E980F9A00F1010E93
:103D6000DA46FFF7E3BB0DAA00990598FFF724FA9E
:103D700000287FF4FBAE0E980F9A00F1010EDA4690
:103D80009BE6002A40F0D8804FF0010E1046DA463C
:103D900097E60DAA00990598FFF70EFA00287FF420
:103DA000E5AE0E9B0F9A03F1010EDA4622E43022B3
:103DB0008DF83020019A8DF83130002A4FF0000341
:103DC0008DF82F3046F00203C0F2CB8026F080063B
:103DD00046F002064FF0000942E74FF00009904814
:103DE0003EE7019B64424FF02D0965EB4505002B32
:103DF0008DF82F90FFF67BAC26F0800677E4079BCA
:103E0000002B72D00CAB02221A931B924FF0010EC2
:103E1000DA4613E716F0400948D004998DF82F20B0
:103E20000B460C880199002903F104034FF00005AB
:103E3000FFF610AE54EA050126F0800604933FF425
:103E40009CAC9146A1E4F0060AD4710608D5049A08
:103E5000136804320492BDF808201A80FFF719BADB
:103E6000049A136804320492029A1A60FFF711BA96
:103E70000DAA00990598FFF79FF900287FF476AE08
:103E80000E980F9A00F1010EDA46FAE54FF0FF3076
:103E9000FFF7B6BA6248164654EA050204934FF09B
:103EA00000097FF4DDAEFCE6049BF5E7049A8DF88B
:103EB0002F9013461468019A002A03F104034FF06F
:103EC0000005FFF6C7AD54EA050226F0800604930C
:103ED0007FF45BAC51E40DAA00990598FFF76CF9EB
:103EE00000287FF443AE0F9A68E610464FF0010EAB
:103EF000DA46E6E504998DF82F300A460C880199D8
:103F0000002902F104024FF000054EDB54EA0501DE
:103F100026F08006049299467FF4E9ABD4E404933A
:103F2000F9E638460494FDF78BFD002303909DF8D5
:103F30002F900193FFF79CBA0DAA00990598FFF7FF
:103F40003BF900287FF412AE0E980F9A00F1010E93
:103F5000DA46B6E50E980F9ADFF8CC900130FFF7FD
:103F6000D2BA1E464FF000097AE6062B28BF062378
:103F70000393049423EAE3752A4F0CE504926AE55F
:103F80000E98DFF8A4900130FFF773BBF446FFF7FB
:103F90001ABB019B9DF82F90039304940190FFF7A7
:103FA00067BA00220192FFF7ACB904929946B2E6D3
:103FB000049A136801930432002B049298F801309C
:103FC000A846BFF69CA94FF0FF320192FFF797B9C0
:103FD0008DF82F008EE48DF82F00F0E48DF82F007F
:103FE000ABE49946F30705D52AAF302307F8413DE6
:103FF000FFF797BB019B03935F46FFF739BA8DF834
:104000002F0043E48DF82F00FFF79ABB8DF82F00A7
:10401000FFF74DBB8DF82F000FE58DF82F00F3E46F
:10402000B8864000CC864000F8864000F0B50C46CB
:10403000ADF26C4D8989666EE589199621F0020111
:10404000666AADF80E500025E769ADF80C100996C8
:1040500006951AAE4FF4806569460096049602955F
:10406000059507970646FFF7E3F8051E07DB304680
:10407000694601F0E9F8002818BF4FF0FF35BDF898
:104080000C305B0603D5A38943F04003A381284687
:104090000DF26C4DF0BD00BF38B5304B1B680546C6
:1040A0000C4613B19A6B002A38D0B4F90C2093B2A5
:1040B00018070CD52069A8B113F001021ED063695E
:1040C00000225B42A361A260F0B1002038BDD90696
:1040D0003CD5580726D4206942F00803A3819BB23F
:1040E0000028E9D103F42072B2F5007FE4D028461D
:1040F000214601F0D9FCA3892069DDE7990758BF63
:104100006269A2600028E0D1B4F90C301A06DDD54E
:1041100043F04003A3814FF0FF3038BD184601F053
:1041200027F9C2E7216B51B104F14003994204D051
:10413000284601F0E7F9B4F90C200023236300239B
:104140002069636022F024022060C5E742F040024B
:1041500009232B604FF0FF30A28138BD38040020C6
:10416000024B13B1024800F005B870470000000090
:1041700085534000002301461A46184602F05ABFF4
:1041800002690B69934200F38D802DE9F04F03F132
:10419000FF3801F1140700F1140B57F828205BF8E1
:1041A00028304FEA880483B00132B3FBF2F90BEBFD
:1041B0000403009407EB040A0193B9F1000F39D00E
:1041C0000025BC46DE462B465CF8046BDEF800207A
:1041D000B4B209FB0455360C2C0C09FB0644ADB2F5
:1041E0005B1BA6B213FA82F3C6EB124606EB23461C
:1041F0009BB243EA0643E2454EF8043B4FEA1445BE
:104200004FEA2643E0D2009B5BF8033093B9019C50
:10421000231F9B450CD254F8043C4BB9A4F108036E
:1042200002E01A68043B1AB99B4508F1FF38F8D33D
:10423000C0F81080044602F08DFA00282EDB09F148
:1042400001095D46002357F8041B28688AB29A1AB0
:10425000090C12FA80F2C1EB104303EB224391B236
:1042600041EA0341BA4545F8041B4FEA2343EAD229
:104270005BF828200BEB880382B91A1F93450BD2F9
:1042800053F8042C42B9083B02E01A68043B1AB9FF
:104290009B4508F1FF38F8D3C4F81080484603B0B6
:1042A000BDE8F08F002070472DE9F04F016C97B00A
:1042B0008146239C92469B4649B1426C4A60012349
:1042C00093408B6002F064F80023C9F84030BBF1E2
:1042D000000FD84633DB00232360A54B1A4608EABB
:1042E0000303934214D0504659460022002303F0A2
:1042F000E9FB054648B3229A01231360249B002B57
:1043000000F0C5809B481860013817B0BDE8F08FF9
:10431000229A42F20F731360BAF1000F00F0A280EC
:104320009548249B002BF0D0C378002B00F0B1807F
:1043300000F10803249A136017B0BDE8F08F012341
:104340002BF000482360C346C7E714AA15AB0192BF
:10435000009352465B46484602F0A6FA5FEA1854BC
:10436000089040F08880149D159C2C4404F2324340
:10437000202B40F39182C3F1400304F2124008FA6B
:1043800003F82AFA00F040EA080003F0BDF8012320
:10439000013CA1F1F87110930022784B02F076FFF6
:1043A0006DA3D3E9002303F025F96DA3D3E900231E
:1043B00002F06EFF064620460F4603F0B5F86AA3EA
:1043C000D3E9002303F016F902460B46304639467E
:1043D00002F05EFF06460F4603F0BCFB002204908D
:1043E00000233046394603F077FB002840F0308246
:1043F000049E162E00F22982614B03EBC603D3E91B
:10440000000152465B4603F085FB002800F049821C
:10441000731E049300230C932C1B631E029300F164
:10442000328200230593049B002BC0F22382029A60
:104430000B9311461944002302910A93209B092BE8
:1044400029D8052B40F35886043B20930025209B58
:10445000023B032B00F23586DFE813F02C03280221
:1044600037035904444B474AC8F31300002814BFCC
:104470001846104655E7CBF3130343F07F511095D0
:104480005046A4F2FF3441F44011149D84E73E48A5
:104490003BE7C31C4EE70021C9F844104846209171
:1044A00001F050FF4FF0FF330693209A0D93012344
:1044B00007902192C9F840000993159B002BC0F288
:1044C000D180049A0E2A00F3CD802D4B03EBC2035A
:1044D000D3E90034CDE90234219B002BC0F20083E4
:1044E00056465F4650465946DDE902AB52465B46AA
:1044F00003F0AAF903F02EFB044603F015F8524628
:104500005B4603F077F80B4602463946304602F028
:10451000BDFE079D04F130032B70069B012B064660
:104520000F4605F1010562D00022184B03F062F836
:104530000022002306460F4603F0C4FA00287ED16D
:10454000CDF81490DDF818A0DDF81CB0DDE9028983
:1045500029E000BFAFF3008061436F63A787D23FBC
:10456000B3C8608B288AC63FFB799F501344D33F62
:104570000000F07FD5864000148740000000F83F1F
:104580002887400008874000D4864000000024406F
:1045900003F030F80022002306460F4603F092FA9B
:1045A000002840F0B78342464B463046394603F078
:1045B0004BF903F0CFFA044602F0B6FF42464B46F1
:1045C00003F018F802460B463046394602F05EFE0C
:1045D00004F1300E05F801EBCBEB050ED64506468F
:1045E0000F464FF00002B04BD2D1DDF814903246A6
:1045F0003B463046394602F04BFE06460F46024621
:104600000B46DDE9020103F067FA40B932463B464A
:10461000DDE9020103F056FA88B1E3070FD515F87A
:10462000014C079A6B1E04E09A4200F02C8413F8A8
:10463000014D392C03F10105F6D001341C700899A5
:10464000484601F0A5FE0022049B2A70229A0133FD
:104650001360249B002B00F0A78307981D6017B000
:10466000BDE8F08F099A002A00F01281209A012AF1
:1046700040F35882069B0A9A5F1EBA42C0F29783A3
:10468000D71B069B002BC0F28A84059D069B059ACA
:104690001A440592029A01211A444846029201F0F6
:1046A0000FFF064665B1029900290B4608DDA942B5
:1046B000059AA8BF2B46D21AED1ACB1A059202937F
:1046C0000A9B002B40F3FC82099A002A00F0018229
:1046D000002F00F0FE8131463A46484601F092FF35
:1046E000DDF82080014642460646484601F0F2FECB
:1046F00041460446484601F04BFE0A9BDB1B0A93E9
:1047000040F0E6810121484601F0DAFE0B9B80462D
:10471000002B00F0198201461A46484601F072FF4C
:10472000209B012B804640F3F8820027D8F81030F8
:1047300008EB8303186901F075FEC0F12000029AAE
:10474000104410F01F0000F0F681C0F12003042B8C
:1047500040F3CA84059BC0F11C0003440593134633
:10476000034405440293059B002B05DD21461A46B0
:10477000484601F097FF0446029B002B05DD4146A9
:104780001A46484601F08EFF80460C9B002B40F0F5
:104790007C82069B002B40F39582099B002B40F006
:1047A000F581DDF81CB0069F5D4602E001F0FAFDE0
:1047B000044641462046FFF7E3FC00F1300A05F8C5
:1047C00001ABCBEB0503BB424FF00A024FF00003F5
:1047D00021464846EADB079B069A012AACBF9B1894
:1047E00001331D464FF0000B21460122484601F0DF
:1047F00059FF4146089001F0ADFF002840F30D83BA
:1048000015F8012C07996B1E04E08B4200F07882AA
:1048100013F8012D392A03F10105F6D001321A707F
:104820004146484601F0B4FD002E3FF408AFBBF10D
:10483000000F05D0B34503D05946484601F0A8FD06
:104840003146484601F0A4FDF9E601230C93E3E567
:10485000DDF81080404602F067FE02460B46304607
:10486000394603F02FF900287FF4C2AD08F1FF3379
:104870000493BDE5059A049BD21A5B420A93002378
:1048800005920B93DAE55B42059300230293CAE598
:104890000A9F059D099E05E7C3F120080AFA08F062
:1048A00073E50C90B8E500BF000024400023099395
:1048B000049B219A13440D930133002B069340F37C
:1048C0008382069C26460021172EC9F844100BD976
:1048D000012204235B0003F11400B042114602F1EF
:1048E0000102F7D9C9F84410484601F02BFD0E2CFF
:1048F0000790C9F840003FF6E0AD002D3FF4DDAD74
:1049000004995746D8460029CDE90E7840F39282A3
:10491000914B01F00F020E1103EBC203F006D3E935
:10492000004540F14C828D4B50465946D3E908234F
:1049300002F08AFF06F00F0682468B464FF003080E
:1049400086B1864FF10709D520462946D7E90023CD
:1049500002F050FE08F1010804460D46761007F1FA
:104960000807EFD122462B465046594602F06CFF0D
:1049700006460F460C9B43B10022794B3046394620
:1049800003F0AAF8002840F02083404602F0CCFD56
:1049900032463B4602F02EFE724B002202F078FCBB
:1049A000069B0446A1F15075002B00F0DF81049BAB
:1049B000DDF818801193099B002B00F09782664B5D
:1049C000694903EBC80353E90223002002F03CFFCE
:1049D00022462B4602F05AFC82468B463046394628
:1049E00003F0B8F8044602F09FFD02460B4630463D
:1049F000394602F04BFC3034079DE4B206460F46C0
:104A00002C7002460B4650465946013503F082F899
:104A100000284CD132463B460020514902F036FC7A
:104A200002460B465046594603F074F8002840F001
:104A30000D83B8F1010F40F3B381079B98440DE05B
:104A40000020474902F022FC52465B4603F044F83E
:104A5000002840F0FB82454500F0A28150465946AF
:104A60000022424B02F0C6FD0022404B82468B469C
:104A70003046394602F0BEFD0F46064603F06AF89E
:104A8000044602F051FD02460B463046394602F01C
:104A9000FDFB3034E4B252465B4605F8014B064656
:104AA0000F4603F019F832463B460028C8D0119B48
:104AB0000493C4E500230993219B002B40F38981D3
:104AC0001E461C460D930693FDE601230993F3E76A
:104AD00008940A9A0899484601F094FD044611E6A4
:104AE000069B002B3FF7FCAC40F0DA820022204B03
:104AF000DDE9020102F07EFD52465B4603F000F85C
:104B0000DDF818804646002800F0F280219B079DC2
:104B1000DB4304934146484601F03AFC002E3FF443
:104B20008EAD8DE6109A002A00F0418203F23343E5
:104B30000A9F059DABE51C20059B03440593029B42
:104B40000344054402930EE6209B012B40F382822E
:104B50000B9F0120F3E500BF28874000F08740004D
:104B60000000F03F00001C400000E03F0000244037
:104B700000001440314600230A22484601F012FC8E
:104B80000D9B002B064640F397820693002D05DD12
:104B900031462A46484601F085FD0646002F40F082
:104BA0007C810596069B079ADDF814B0013BD3186B
:104BB00008930AF0010309931746C246514620465E
:104BC000FFF7DEFA31460546204601F0C3FD5A469E
:104BD00002905146484601F0DDFDC268804605F16D
:104BE0003003002A49D101462046069301F0B2FD68
:104BF00041460590484601F0CBFB059A069B2AB931
:104C0000209919B90999002900F0368202990029E2
:104C1000C0F2E48005D1209919B90999002900F062
:104C2000DD80002A00F34D81089A3B7007F10108EE
:104C30009742454600F05481214600230A22484607
:104C400001F0B0FB5E45044631464FF000034FF0E3
:104C50000A0248460BD001F0A5FB59460646002340
:104C60000A22484601F09EFB47468346A6E701F02C
:104C700099FB474606468346A0E70146484605930A
:104C800001F086FB0122059BC0E74146204601F06A
:104C900061FD0028BFF67DAD2146049C0023013C48
:104CA0000A224846049401F07DFB099B0446002B30
:104CB0007FF460AF0D9B002B40F3F681069370E507
:104CC000089C1FE5209B022B7FF767AD069B002BFE
:104CD00040F0798141460522484601F063FB0146D8
:104CE0008046204601F036FD002808947FF70EAF7D
:104CF000049A07993123013204920B704D1C09E785
:104D0000049A01320492079A3123137088E5012333
:104D10000993CDE5DDF8149091E4BAF1000F7FF42A
:104D200004ADCBF31303002B40F03F812BF0004781
:104D30003F0D3F0537B1059B01330593029B0133BE
:104D4000029301270B9B0120002B3FF4F8ACEDE40C
:104D5000404602F0E9FB32463B4602F04BFC0022A3
:104D6000BF4B02F095FA0446A1F150753046394622
:104D70000022BC4B02F08AFA22462B4606460F461A
:104D800002F0C8FE8046002840F00581224605F169
:104D900000433046394602F09FFE08B14646B5E66C
:104DA000DDE90EABFFF789BB0798FFF7AEBA0A9BA8
:104DB0000B9A0A97FB1A1A440B92002761E4DDE96B
:104DC0000EAB4FF00208BBE51C460021C9F84410A9
:104DD0008AE5012421940D940694F6E7002AD04632
:104DE000CDF814B09A4611DD21460122484601F063
:104DF00059FC4146044601F0ADFC002840F34981CE
:104E0000BAF1390F00F0068105F1310AB34687F88F
:104E100000A07D1C059E089402E504D11AF0010F44
:104E200001D0EDE4154615F8013C302B05F1FF32B9
:104E3000F8D0F5E4049B5C42002C00F0BF808A4B64
:104E400004F00F0203EBC203D3E90023DDE90E01F6
:104E500002F0D0FB241106460F4600F02A81834D54
:104E60004FF00208E20709D530463946D5E900235C
:104E700002F0C0FB08F1010806460F46641005F178
:104E80000805EFD176E5079930220A70049A15F8E3
:104E9000014C01320492FFF7D0BB7168484601F023
:104EA00051FA33699A1C0546920006F10C010C3048
:104EB00001F046F929460122484601F0F3FB05902E
:104EC00070E6392BCDF814B0D04600F0A38003F182
:104ED000010AB34687F800A07D1C059E08949FE454
:104EE0005A46D046B3469A4616467DE45E4908F1D6
:104EF000FF3A01EBCA0122462B46D1E9000102F03C
:104F000079FBCDE912013946304602F023FE044612
:104F100002F00AFB02460B463046394602F0B6F96B
:104F2000079A3034B8F1010F06460F46147002F1AB
:104F300001051ED0079B03EB080BA84600224C4B33
:104F40003046394602F056FB0F46064602F002FE96
:104F5000044602F0E9FA303402460B463046394640
:104F600002F094F908F8014BC34506460F46E5D117
:104F7000554400223F4BDDE9120102F089F9324627
:104F80003B4602F0A9FD00284CD0119B049315F874
:104F9000014CFFF746BB4FF000084646A8E6059BCC
:104FA000069A9D1A0023FFF772BB0027CAE6149BDE
:104FB0000A9F059DC3F13603FFF769BBDDE90E6764
:104FC0004FF00208D6E40894A0E5069B002B3FF4BE
:104FD000BFAE0D9B002B7FF7E3AE0022244B304683
:104FE000394602F007FB06460F4608F1010002F0C1
:104FF0009BFA32463B4602F0FDFA0022184B02F0C3
:1050000047F9049ADDF83480013A0446A1F150755D
:105010001192D0E43922B3460894059E3A707D1C63
:10502000FFF7F0BBDDE912230020124902F02EF950
:1050300032463B4602F06EFD08B9B1E6154615F85A
:10504000013C302B05F1FF32F8D030E5119B049381
:10505000FFF7E7BABAF1000F7FF47AAD61E600BF5F
:1050600000001C400000144028874000F0874000EA
:10507000000024400000E03F392BCDF814B0D046AA
:10508000DDF808B09A46C5D0BBF1000F3FF7BCAEC3
:10509000BCE67FF4BBAE1AF0010F3FF4B7AEAFE64B
:1050A0004FF00008464631E5209B022B21DC0D9B8A
:1050B00004E64FF002085DE4209B022B19DC0D9BF7
:1050C00063E50024C9F844402146484601F03AF916
:1050D0004FF0FF3306930D93012307902194C9F8F5
:1050E00040000993FFF7E9B93FF43DABC0F13C0044
:1050F00022E50D9B0693E9E50125FFF7A8B900BF5E
:10510000B1F90C309AB22DE9F0410D4611078046F5
:105110003CD46A6843F40063002AAB8173DDAC6A57
:10512000002C4BD09BB203F48052002192B2D8F8ED
:105130000060C8F80010002A69D02A6D5F0705D505
:1051400069682B6B521A0BB1EB6BD21A0023E96919
:105150004046A047441C3CD0B5F90C302A692A606F
:1051600023F400630022AB81DB046A6049D4296B1D
:10517000C8F8006011B305F14003994202D04046DF
:1051800000F0C0F900202863BDE8F0812E69AEB1BF
:105190002C682E6090070CBF6B690023A41BAB60CA
:1051A0000AE0234632466F6AE9694046B84700285C
:1051B000A4EB0004064404DD002CF2DC0020BDE872
:1051C000F081AB8943F04003AB814FF0FF30BDE885
:1051D000F081D8F800201D2AF3D81A4BD34003F0F1
:1051E000010383F00104002BEBD0B5F90C302969E1
:1051F000296023F40063D9046C60AB81B7D5002A21
:10520000B5D12865B3E7EA6B002A88DCD6E701232D
:10521000E9694046A047431C024602D0AB89AC6A0C
:105220008CE7D8F80030002BF8D01D2B01D0162BBE
:1052300002D1C8F80060C1E7AB8943F04003AB81FD
:10524000BDE8F0810100402010B5044682B008B1ED
:10525000836B53B1B1F90C0008B902B010BD204600
:1052600002B0BDE81040FFF74BBF019100F080F89D
:105270000199EFE7014900F0AFBB00BF5D7140004D
:105280002DE9F04F354B4568C3630024074600F510
:105290003B7204230321C0F8E412C0F8E822C0F8EE
:1052A000E04283B02C606C60AC606C66EC812C6179
:1052B0006C61AC61AB81214605F15C000822FCF712
:1052C00037FBBE68DFF898B0DFF898A0DFF8989059
:1052D000DFF89880C5F820B001230922C5F824A082
:1052E000C5F82890C5F82C80ED612146F381B28184
:1052F00006F15C0034607460B4607466346174619B
:10530000B46108220193FCF713FBFD68F6611220DB
:105310000222C6F820B0C6F824A0C6F82890C6F825
:105320002C802146A881EA812C606C60AC606C66A0
:105330002C616C61AC6105F15C000822FCF7F8FAA5
:10534000019BED61C5F820B0C5F824A0C5F82890F0
:10535000C5F82C80BB6303B0BDE8F08F75524000E8
:10536000656D4000896D4000C56D4000E56D4000F1
:10537000836B03B17047FFF783BF00BF704700BF67
:10538000704700BF38B5074D074C2C1BA41005D043
:10539000013C55F8043D9847002CF9D1BDE8384050
:1053A00003F04ABA48884000448840002DE9F0479D
:1053B00082B080468946144600F03CFB012833D079
:1053C00004F15C034A4601A9404601F0E5FDB0F155
:1053D000FF3F824621D088B39DF80460002508E095
:1053E00023685A1C22601E700135554526D201AB38
:1053F0005E5DA368013B002BA360F1DAA769BB42A5
:1054000031462246404601DB0A2EE9D101F06EFD0D
:10541000431CE9D102B0BDE8F087A38943F0400303
:10542000A38102B0BDE8F08709F1FF33FE2BC7D896
:105430005FFA89F682468DF80460CFE7484602B0ED
:10544000BDE8F087B2F90C3013F4005F0AD110B454
:10545000546E43F4005344F400545466938110BCDA
:10546000FFF7A4BFFFF7A2BFF8B5234F0C460646CF
:1054700000F064FFBB685D6825F00305291B01F699
:10548000EF7121F47F6121F00F01A1F58054B4F593
:10549000805F07DB0021304601F052FCBB682B44E3
:1054A000984204D0304600F04BFF0020F8BD614226
:1054B000304601F045FC01300DD0104BBA68196838
:1054C0002D1B45F001053046091B5560196000F0A1
:1054D00037FF0120F8BD0021304601F031FCBA68E9
:1054E000831A0F2BDEDD064C0449246843F00103C8
:1054F000001B53600860D5E798040020140D0020BD
:10550000A4080020002945D02DE9F0410D46804631
:1055100000F014FF55F8047C6A4927F00103A5F157
:105520000804E2188E685068B24220F0030062D08E
:10553000FE0750600BD455F8087CE41B01F1080EFF
:10554000A56875453B446FD0E768EF60BD601518EE
:105550006D68ED0742D543F001026260E350B3F598
:10556000007F18D2DB085A1C4D6851F83270A760D2
:1055700001209B1000FA03F301EBC2001D43083821
:10558000E0604D6041F83240FC604046BDE8F041CB
:1055900000F0D6BE70475A0A042A53D89A0902F17D
:1055A00039077F0002F1380501EB870051F8272009
:1055B0004449083890424DD0516821F003018B4294
:1055C00002D292689042F7D1D068E060A260846015
:1055D000D4604046BDE8F04100F0B2BE95683A4F55
:1055E000BD4203443FD0D068E86043F001028560CB
:1055F0006260E350B3E7FF07034407D455F8082C73
:10560000A41A1344A068E268C26090602F4A12682E
:1056100043F00100934260608C60B6D32C4B40464F
:105620001968FFF721FFB0E711184968C90744D48A
:105630009168D268CA60034443F0010091606060E1
:10564000E350A2E7142A17D802F15C077F0002F1A9
:105650005B05A9E7AA104B68012505FA02F213437E
:105660004B600246B1E743F001024C610C61E5601A
:10567000A5606260E35088E7542A06D81A0B02F14D
:105680006F077F0002F16E058EE7B2F5AA7F06D89C
:10569000DA0B02F178077F0002F1770584E740F228
:1056A0005450824206D89A0C02F17D077F0002F125
:1056B0007C0579E7FE277E2576E743F001026260EC
:1056C000E35062E798040020A0040020A008002016
:1056D000100D00209368002B76D02DE9F04F8B89B8
:1056E00085B00C4619070190164629D522693AB3B0
:1056F00003F002081FFA88F0356800282FD04FF019
:105700000009B44FC846B246B84543464A4628BF8A
:105710003B460198B8F1000F50D0E169666AB04786
:10572000002871DDDAF808301B1A8144C0EB080844
:10573000CAF80830002BE7D1002005B0BDE8F08F93
:1057400021460198FEF7A8FC002840F03A81A38981
:10575000356803F002081FFA88F00028CFD113F053
:1057600001095BD14F4602961FB39A05D4F8088011
:105770002CD54745C246C0F0A48013F4906F40F08A
:10578000B18020685246494600F074FDA068236845
:10579000C8EB00005344A06023603846029A936827
:1057A0001B1A81443F1A9360002BC5D0A389002F98
:1057B000DBD1D5F800906F680835D5E7D5F80090B3
:1057C000D5F8048008359FE70020704720682369DA
:1057D000984203D861698F4280F0B780B84528BFEE
:1057E000B8464246494600F045FDA3682268C8EB2A
:1057F00003034244A3602260002B49D12146019853
:10580000FFF722FD002843D0B4F90C3043F04003E9
:105810004FF0FF30A38105B0BDE8F08F80460290C5
:1058200082468146B9F1000F2AD0029B002B4CD052
:10583000206823696269C845C34628BFCB469842A1
:105840005F4604D9A36813449B4500F390809345B9
:1058500020DB1346676AE16901985246B847071E84
:10586000D2DDB8EB070823D0B368DB1BBA44C7EB23
:105870000909B360002B3FF45FAFB9F1000FD4D139
:105880000023D5F800A0D5F8049002930835C9E7A5
:10589000404683E75A46514600F0ECFCA268236874
:1058A000CBEB02025B44B8EB0708A2602360DBD1BC
:1058B00021460198FFF7C8FC0028A5D1CDF8088043
:1058C000D2E72068B846BA465CE74A460A21504605
:1058D00000F0E6FB00286FD001300123CAEB00087E
:1058E0000293A5E762692068216902EB4208C1EBD7
:1058F000000A08EBD8780AF101004FEA680838443A
:105900004045424684BF804642465B0542D511462B
:10591000019800F00DF98346002855D052462169C0
:1059200000F00EFCA38923F4906343F08003A3816D
:10593000CAEB08030BEB0A00C4F81480C4F810B0DB
:105940002060A360B846BA461CE76FF00043BB4234
:1059500028BF3B464A4693FBF1F30198666A01FB78
:1059600003F3E169B04700283FF718AF4CE71A4648
:105970005146039300F07EFC2268039B01981A4471
:1059800022602146FFF760FC039B00287FF43CAFB8
:105990001F4666E7019800F0E3FF83460028C7D161
:1059A000019D21692846FFF7ADFDB4F90C300C22AA
:1059B00023F080032A6029E7012309F101080293FB
:1059C00036E74FF0FF30B8E6019A0C231360B4F9C4
:1059D0000C301BE700FCFF7F2DE9F84310F538770A
:1059E0001FD0884606464FF000097D68BC68013D1F
:1059F00011D4A389012B05F1FF3508D9B4F90E3074
:105A000001332146304602D0C04749EA00096B1CE9
:105A100004F16804EDD13F68002FE6D14846BDE8A7
:105A2000F883B9464846BDE8F88300BF0048704790
:105A300074040020014B1868704700BF94040020D4
:105A4000004870473C04002070B50D46B1F90E10B7
:105A5000002990B014461E4614DB01AA01F0C0FBD9
:105A600000280FDB029A02F47042A2F50052B2FA4B
:105A700082F252094FF480634FF400603260236079
:105A800010B070BDA88900F0800082B200203060A4
:105A90001AB14023236010B070BD4FF480631046EC
:105AA000236010B070BD00BF8A8992070B4606D5EF
:105AB00001F1430201211A601A6159617047F0B582
:105AC00083B001AB6A460C460546FFF7BDFF00995F
:105AD0000646284600F02CF8B4F90C30D0B1019AF3
