S00B000050494F2E7372656331
S214400000C8340020C9074000C5074000C507400067
S214400010C5074000C5074000C50740000000000077
S214400020000000000000000000000000C50740007F
S214400030C507400000000000C5074000C507400057
S214400040C5074000C5074000C5074000C50740003B
S214400050C5074000C5074000C5074000C50740002B
S214400060C5074000C50740000000000049064000A4
S2144000705D06400071064000C5074000C5074000C9
S2144000800000000000000000C5074000C507400013
S214400090C5074000C5074000C5074000C5074000EB
S2144000A0C5074000C5074000C5074000C5074000DB
S2144000B0C5074000C5074000C5074000C5074000CB
S2144000C0C5074000C5074000C507400010B5054CB1
S2144000D0237833B9044B13B10448AFF300800123AF
S2144000E0237010BD3004002000000000EC0B4000E0
S2144000F0084B10B51BB108490848AFF300800848C4
S214400100036803B910BD074B002BFBD0BDE8104079
S214400110184700BF0000000034040020EC0B4000ED
S214400120EC0B40000000000010B50E480E4B984700
S2144001303E2100200D4B98470D4CA0470028FCD090
S2144001400C4B98470C4A0D4B9A620D4CA047002822
S214400150FCD010200B4B98470B4B98470148024B5E
S214400160984710BD000E27078D094000ED06400059
S2144001704107400051074000013F132000040E4055
S21440018061074000850640007908400038B54FF4C6
S2144001900042464B5A600B20454CA0470C20A047D7
S2144001A00D20A0474FF060511320424CA0474FF01F
S2144001B060511420A04740492320A0473F494C2087
S2144001C0A0474FF000624FF4C0613D483D4B984712
S2144001D04FF080510020A0474FF080510820A047A4
S2144001E04FF080515220A0474FF000610C20A047AE
S2144001F04FF000610D20A0474FF000610E20A04751
S2144002004FF000610B20A0474FF000611520A0473B
S2144002104FF000611620A0474FF040511720A047EE
S2144002201720294B9847294D29464020A047294664
S2144002304120A04729464220A04729464320A047C0
S21440024029464420A04729464520A047294646201F
S214400250A04729464720A04729464B20A047294685
S2144002604820A04729464F20A04729465320A0476C
S2144002704FF040514D20A04705F10055294610202B
S214400280A04729461120A0474FF000610C20A04708
S2144002904FF000610D20A0474FF000610E20A047B0
S2144002A04FF000610B20A04738BD00BF50140E40F1
S2144002B071074000E10340007900002859000028FB
S2144002C0000E0E4005054000C50340000100000832
S2144002D04264B1F1C05F2FD007D8B1F1006F14D09F
S2144002E0B1F1805F1ED039B97047B1F1205F36D08A
S2144002F004D8B1F1005F29D042607047B1F1405F49
S2144003002DD0B1F1605F2AD0F6E710B4046F016FCC
S214400310D343214019400167446F416F21400B4051
S21440032043671AE0036F13430367416F436F0B4005
S21440033023EA02034367DFE7016F036F0B4023EABC
S21440034002030367436F13434367D5E7036F1343C3
S2144003500367436F13434367CEE7426010BC704762
S214400360416412F0010F14BF4166016612F00A0F95
S21440037014BF0162416212F0020F02D0C0F8801032
S21440038004E012F0080F18BFC0F884104161016005
S214400390704700BF10B44164019C0CB1416600E058
S2144003A001660BB1016500E041650AB1016300E0FA
S2144003B041630161016010BC704700BFC06C70476C
S2144003C0806C7047430903F5001303F207735B0222
S2144003D000F01F00012202FA00F05863704700BF89
S2144003E070B582B00D46430903F5001303F2077358
S2144003F05C0201F0F043B3F1005F47D009D8B3F197
S214400400805F21D0B3F1C05F2FD0B3F1006F6FD1C2
S21440041009E0B3F1405F55D0B3F1605F52D0B3F11D
S214400420205F44D064E000F01F000126864032463C
S2144004304FF000612046304B984715F0010F14BF2F
S21440044066662666012054E000F01F0001268640BE
S21440045032464FF080512046274B984715F0010F03
S21440046014BF66662666012043E000F01F000126A2
S214400470864032464FF0C05120461F4B984715F0F5
S214400480010F14BF66662666012032E000F01F00AA
S2144004900126864032464FF000512046164B98477C
S2144004A015F0010F14BF66662666012021E000F0B5
S2144004B01F0101262A4606FA01F120460F4B9847AF
S2144004C0304616E005F0605200F01F01012605EAAE
S2144004D006030093C5F38003B2F1605F14BF0022A9
S2144004E0012206FA01F12046054CA047304600E0BE
S2144004F0002002B070BD00BFD10240006103400042
S2144005009503400070B582B005460E46144602F08C
S214400510F043B3F1005F38D009D8B3F1805F1CD008
S214400520B3F1C05F25D0B3F1006F50D109E0B3F10D
S214400530405F3AD0B3F1605F37D0B3F1205F30D040
S21440054045E00A464FF00061224B984714F0010FF1
S21440055014BF6E662E6601203AE00A464FF0805180
S2144005601C4B984714F0010F14BF6E662E66012090
S2144005702EE00A464FF0C051164B984714F0010F34
S21440058014BF6E662E66012022E00A464FF00051E8
S214400590104B984714F0010F14BF6E662E6601206C
S2144005A016E00D4B9847012012E004F0605204F02C
S2144005B001030093C4F38003B2F1605F14BF0022CE
S2144005C0012231462846054CA047012000E0002085
S2144005D002B070BDD1024000610340009503400068
S2144005E02DE9F84381468846124B984705464846CB
S2144005F0114B9847054013D0104C04F16006236811
S214400600434508D16168294205D0E368404698478B
S214400610636825EA0305B44202D01034002DEED1BB
S214400620074B1B6823B1074B1B680BB148469847DE
S214400630BDE8F883BD034000C103400050040020DD
S214400640C00400204C04002008B50B210148024B92
S214400650984708BD000E0E40E105400008B50C2145
S2144006600148024B984708BD00100E40E105400087
S21440067008B50D210148024B984708BD00120E40B0
S214400680E1054000184A136B23F0700318431063CB
S214400690936E13F0080F03D009E0013B03D11EE030
S2144006A04FF4006310498A6E12F0080FF5D00E4AD8
S2144006B0136B23F0030343F002031363906E10F0B2
S2144006C0080004D000207047013B03D109E04FF4F6
S2144006D0006305498A6E12F0080FF5D07047012076
S2144006E070470120704700BF00040E4038B11149E2
S2144006F00B6A114A1A40114B13430B6270470D4860
S214400700026A090289B222F45C1323F0030343F41D
S2144007105C1343F001030B4303620246936E13F0EF
S214400720010FFBD0034A136A43F09B7343F48033B4
S2144007301362704700040E40FCFFC8FE02003701FB
S214400740024B986E00F48030704700BF00040E40A5
S2144007504FF00052014B9A62704700BF00040E40B3
S214400760024B986E00F00200704700BF00040E4037
S21440077022281ED81F280CD8114B9A690123834083
S214400780934318D0012303FA00F00D4B1861002064
S214400790704720380A4BD3F80821012383409343FF
S2144007A00BD0012303FA00F0054BC3F800010020EC
S2144007B0704701207047002070470020704700BFF8
S2144007C000040E40FEE700BF08B5204B204A9A4280
S2144007D012D9204B1D4A9A421ED21146013B9B1A03
S2144007E023F0030304331A4A134452F8040B41F827
S2144007F0040B9A42F9D10FE0144B154A9A420BD299
S214400800144B124A9A1A144811182AB151F804295E
S21440081043F8042D8142F9D100BF104B104A9A424A
S2144008200BD2131D0F4AD21A22F003021A44043B7D
S214400830002143F8041B9A42FBD10B4B0B4A9A60AB
S2144008400B4B98470B4B9847FEE700BF0000002035
S214400850EC0B400030040020E80B4000C4040020AD
S21440086030040020C704002000ED00E000004000F7
S214400870850A4000210A40003D4B1B6B03F00303F2
S214400880032B5DD8DFE803F0020E2B2B394B5B6958
S21440089013F0800F14BF4FF400424FF4FA42364B29
S2144008A01A604DE0324B1B6A13F0807F03D0334A08
S2144008B0314B1A6044E0324A2F4B1A602C4B1B6A6D
S2144008C003F07003102B02D0202B04D038E02D4AC2
S2144008D0294B1A6034E0294A274B1A6030E0244BF3
S2144008E01B6A13F0807F03D0244A234B1A6012E021
S2144008F0234A214B1A601E4B1B6A03F07003102BD1
S21440090002D0202B04D006E01E4A1B4B1A6002E0A1
S2144009101A4A194B1A60164B1B6B03F00303022B43
S214400920134A07BF936A926AD36AD26A1248C3F3DD
S2144009300A41036801FB0333D2B2B3FBF2F3036010
S2144009400B4B1B6B03F07003702B07D10A4A1368DE
S2144009500D49A1FB03135B0813607047044B1B6BE8
S2144009600549C3F302120B68D3400B60704700BFC3
S21440097000040E4010140E4000000020001BB7007C
S21440098000093D0000127A00ABAAAAAA1A4B984268
S21440099007D84FF08063194A136002F5007213605F
S2144009A07047174B984206D8164B144A136002F508
S2144009B0007213607047144B984206D8134B0F4A88
S2144009C0136002F5007213607047114B984206D8C8
S2144009D0104B0A4A136002F50072136070470E4BC4
S2144009E0984294BF4FF004230C4B044A136002F520
S2144009F000721360704700BFFF2C3101000A0E40A2
S214400A00FF59620200010004FF86930300020004BF
S214400A10FFB3C40400030004FFE0F505000500042E
S214400A2008B5144B9847144B9847144B1A6842F431
S214400A30C0121A60124A116841F008011160196923
S214400A4041F4C0111961516941F0080151611A6BB6
S214400A5042F4C0121A630A49CA6B12F0080F04D057
S214400A601A6B42F4C0121A63F6E75A6B42F4C0128D
S214400A705A63F1E7290140008D014000000E0E4008
S214400A8000100E4070B50F4E0F4D761BB61018BFB7
S214400A90002405D0013455F8043B9847A642F9D1C6
S214400AA00A4E0B4D761B00F08FF8B61018BF002488
S214400AB006D0013455F8043B9847A642F9D170BD9C
S214400AC070BD00BFD40B4000D40B4000DC0B400090
S214400AD0D40B4000024B13B1024800F005B87047F3
S214400AE000000000F50A4000002301461A4618465A
S214400AF000F014B838B5074D074C2C1BA41005D091
S214400B00013C55F8043D9847002CF9D1BDE83840E3
S214400B1000F064B8EC0B4000E80B40002DE9F047CD
S214400B20254C2568D5F8484106468846924699465B
S214400B30C4B360681F2817DC431C76B104EB8005FD
S214400B400122C5F888A0D4F8881182401143022EAD
S214400B50C4F88811C5F808911ED00230636044F886
S214400B6020800020BDE8F087144B03B34FF4C870D4
S214400B70AFF300800446D0B1D5F84831002780E86E
S214400B808800C5F8484138460123C4F88871C4F83F
S214400B908C71002EE1D0D1E7D4F88C110A43C4F80A
S214400BA08C21DAE705F5A674C5F84841C1E74FF051
S214400BB0FF30BDE8F08700BFC40B400000000000D7
S214400BC04300000008000020F8B500BFF8BC08BC91
S214400BD09E467047D50A4000F1004000F8B500BF79
S210400BE0F8BC08BC9E467047CD004000A4
S214400BEC00093D000000000000000000F402002058
S214400BFC5C030020C403002000000000000000003E
S214400C0C0000000000000000000000000000000093
S214400C1C000000000000000000000000C00B400078
S214400C2C0000000000000000000000000000000073
S214400C3C0000000000000000000000000000000063
S214400C4C0000000000000000000000000000000053
S214400C5C0000000000000000000000000000000043
S214400C6C0000000000000000000000000000000033
S214400C7C0000000000000000000000000000000023
S214400C8C0000000000000000000000000000000013
S214400C9C01000000000000000E33CDAB34126DE6B0
S214400CACECDE05000B000000000000000000000019
S214400CBC00000000000000000000000000000000E3
S214400CCC00000000000000000000000000000000D3
S214400CDC00000000000000000000000000000000C3
S214400CEC00000000000000000000000000000000B3
S8044007C9EB
